{
  "contractName": "Healthcare",
  "abi": [
    {
      "inputs": [
        {
          "internalType": "address",
          "name": "_accessNFT",
          "type": "address"
        }
      ],
      "stateMutability": "nonpayable",
      "type": "constructor"
    },
    {
      "anonymous": false,
      "inputs": [
        {
          "indexed": true,
          "internalType": "uint256",
          "name": "id",
          "type": "uint256"
        },
        {
          "indexed": true,
          "internalType": "address",
          "name": "doctor",
          "type": "address"
        },
        {
          "indexed": false,
          "internalType": "string",
          "name": "meetingLink",
          "type": "string"
        }
      ],
      "name": "AppointmentApproved",
      "type": "event"
    },
    {
      "anonymous": false,
      "inputs": [
        {
          "indexed": true,
          "internalType": "uint256",
          "name": "id",
          "type": "uint256"
        },
        {
          "indexed": true,
          "internalType": "address",
          "name": "doctor",
          "type": "address"
        }
      ],
      "name": "AppointmentCompleted",
      "type": "event"
    },
    {
      "anonymous": false,
      "inputs": [
        {
          "indexed": true,
          "internalType": "uint256",
          "name": "id",
          "type": "uint256"
        },
        {
          "indexed": true,
          "internalType": "address",
          "name": "doctor",
          "type": "address"
        }
      ],
      "name": "AppointmentRejected",
      "type": "event"
    },
    {
      "anonymous": false,
      "inputs": [
        {
          "indexed": true,
          "internalType": "uint256",
          "name": "id",
          "type": "uint256"
        },
        {
          "indexed": true,
          "internalType": "address",
          "name": "patient",
          "type": "address"
        },
        {
          "indexed": true,
          "internalType": "address",
          "name": "doctor",
          "type": "address"
        },
        {
          "indexed": false,
          "internalType": "string",
          "name": "healthIssue",
          "type": "string"
        },
        {
          "indexed": false,
          "internalType": "uint256",
          "name": "consultationFee",
          "type": "uint256"
        }
      ],
      "name": "AppointmentRequested",
      "type": "event"
    },
    {
      "anonymous": false,
      "inputs": [
        {
          "indexed": true,
          "internalType": "uint256",
          "name": "id",
          "type": "uint256"
        },
        {
          "indexed": true,
          "internalType": "address",
          "name": "patient",
          "type": "address"
        },
        {
          "indexed": true,
          "internalType": "address",
          "name": "doctor",
          "type": "address"
        },
        {
          "indexed": false,
          "internalType": "uint256",
          "name": "amount",
          "type": "uint256"
        }
      ],
      "name": "ConsultationPaid",
      "type": "event"
    },
    {
      "anonymous": false,
      "inputs": [
        {
          "indexed": true,
          "internalType": "uint256",
          "name": "id",
          "type": "uint256"
        },
        {
          "indexed": true,
          "internalType": "address",
          "name": "patient",
          "type": "address"
        },
        {
          "indexed": true,
          "internalType": "address",
          "name": "doctor",
          "type": "address"
        },
        {
          "indexed": false,
          "internalType": "uint256",
          "name": "rating",
          "type": "uint256"
        }
      ],
      "name": "DoctorRated",
      "type": "event"
    },
    {
      "anonymous": false,
      "inputs": [
        {
          "indexed": true,
          "internalType": "address",
          "name": "doctor",
          "type": "address"
        },
        {
          "indexed": false,
          "internalType": "string",
          "name": "name",
          "type": "string"
        },
        {
          "indexed": false,
          "internalType": "string",
          "name": "specialization",
          "type": "string"
        },
        {
          "indexed": false,
          "internalType": "string",
          "name": "license",
          "type": "string"
        }
      ],
      "name": "DoctorRegistered",
      "type": "event"
    },
    {
      "anonymous": false,
      "inputs": [
        {
          "indexed": true,
          "internalType": "address",
          "name": "doctor",
          "type": "address"
        }
      ],
      "name": "DoctorVerified",
      "type": "event"
    },
    {
      "anonymous": false,
      "inputs": [
        {
          "indexed": true,
          "internalType": "address",
          "name": "patient",
          "type": "address"
        },
        {
          "indexed": true,
          "internalType": "address",
          "name": "doctor",
          "type": "address"
        },
        {
          "indexed": false,
          "internalType": "uint256",
          "name": "timestamp",
          "type": "uint256"
        }
      ],
      "name": "EmergencyAccess",
      "type": "event"
    },
    {
      "anonymous": false,
      "inputs": [
        {
          "indexed": true,
          "internalType": "address",
          "name": "patient",
          "type": "address"
        },
        {
          "indexed": true,
          "internalType": "address",
          "name": "doctor",
          "type": "address"
        },
        {
          "indexed": true,
          "internalType": "uint256",
          "name": "recordId",
          "type": "uint256"
        },
        {
          "indexed": false,
          "internalType": "uint256",
          "name": "appointmentId",
          "type": "uint256"
        },
        {
          "indexed": false,
          "internalType": "string",
          "name": "diagnosis",
          "type": "string"
        },
        {
          "indexed": false,
          "internalType": "string",
          "name": "prescriptionText",
          "type": "string"
        },
        {
          "indexed": false,
          "internalType": "string",
          "name": "reportHash",
          "type": "string"
        }
      ],
      "name": "MedicalRecordAdded",
      "type": "event"
    },
    {
      "anonymous": false,
      "inputs": [
        {
          "indexed": true,
          "internalType": "address",
          "name": "patient",
          "type": "address"
        },
        {
          "indexed": false,
          "internalType": "string",
          "name": "name",
          "type": "string"
        }
      ],
      "name": "PatientRegistered",
      "type": "event"
    },
    {
      "anonymous": false,
      "inputs": [
        {
          "indexed": true,
          "internalType": "uint256",
          "name": "id",
          "type": "uint256"
        },
        {
          "indexed": true,
          "internalType": "address",
          "name": "doctor",
          "type": "address"
        },
        {
          "indexed": false,
          "internalType": "string",
          "name": "prescriptionHash",
          "type": "string"
        }
      ],
      "name": "PrescriptionAdded",
      "type": "event"
    },
    {
      "anonymous": false,
      "inputs": [
        {
          "indexed": true,
          "internalType": "uint256",
          "name": "id",
          "type": "uint256"
        },
        {
          "indexed": true,
          "internalType": "address",
          "name": "doctor",
          "type": "address"
        },
        {
          "indexed": false,
          "internalType": "uint256",
          "name": "treatmentFee",
          "type": "uint256"
        }
      ],
      "name": "TreatmentFeeSet",
      "type": "event"
    },
    {
      "anonymous": false,
      "inputs": [
        {
          "indexed": true,
          "internalType": "uint256",
          "name": "id",
          "type": "uint256"
        },
        {
          "indexed": true,
          "internalType": "address",
          "name": "patient",
          "type": "address"
        },
        {
          "indexed": true,
          "internalType": "address",
          "name": "doctor",
          "type": "address"
        },
        {
          "indexed": false,
          "internalType": "uint256",
          "name": "amount",
          "type": "uint256"
        }
      ],
      "name": "TreatmentPaid",
      "type": "event"
    },
    {
      "inputs": [],
      "name": "accessNFT",
      "outputs": [
        {
          "internalType": "contract AccessNFT",
          "name": "",
          "type": "address"
        }
      ],
      "stateMutability": "view",
      "type": "function",
      "constant": true
    },
    {
      "inputs": [],
      "name": "admin",
      "outputs": [
        {
          "internalType": "address",
          "name": "",
          "type": "address"
        }
      ],
      "stateMutability": "view",
      "type": "function",
      "constant": true
    },
    {
      "inputs": [
        {
          "internalType": "uint256",
          "name": "",
          "type": "uint256"
        }
      ],
      "name": "appointments",
      "outputs": [
        {
          "internalType": "uint256",
          "name": "id",
          "type": "uint256"
        },
        {
          "internalType": "address",
          "name": "patient",
          "type": "address"
        },
        {
          "internalType": "address",
          "name": "doctor",
          "type": "address"
        },
        {
          "internalType": "string",
          "name": "healthIssue",
          "type": "string"
        },
        {
          "internalType": "uint256",
          "name": "consultationFee",
          "type": "uint256"
        },
        {
          "internalType": "bool",
          "name": "approved",
          "type": "bool"
        },
        {
          "internalType": "bool",
          "name": "rejected",
          "type": "bool"
        },
        {
          "internalType": "string",
          "name": "meetingLink",
          "type": "string"
        },
        {
          "internalType": "bool",
          "name": "paid",
          "type": "bool"
        },
        {
          "internalType": "uint256",
          "name": "treatmentFee",
          "type": "uint256"
        },
        {
          "internalType": "bool",
          "name": "treatmentPaid",
          "type": "bool"
        },
        {
          "internalType": "bool",
          "name": "completed",
          "type": "bool"
        },
        {
          "internalType": "bool",
          "name": "rated",
          "type": "bool"
        },
        {
          "internalType": "string",
          "name": "prescriptionHash",
          "type": "string"
        }
      ],
      "stateMutability": "view",
      "type": "function",
      "constant": true
    },
    {
      "inputs": [
        {
          "internalType": "address",
          "name": "",
          "type": "address"
        }
      ],
      "name": "doctorEarnings",
      "outputs": [
        {
          "internalType": "uint256",
          "name": "",
          "type": "uint256"
        }
      ],
      "stateMutability": "view",
      "type": "function",
      "constant": true
    },
    {
      "inputs": [
        {
          "internalType": "uint256",
          "name": "",
          "type": "uint256"
        }
      ],
      "name": "doctorList",
      "outputs": [
        {
          "internalType": "address",
          "name": "",
          "type": "address"
        }
      ],
      "stateMutability": "view",
      "type": "function",
      "constant": true
    },
    {
      "inputs": [
        {
          "internalType": "address",
          "name": "",
          "type": "address"
        }
      ],
      "name": "doctors",
      "outputs": [
        {
          "internalType": "string",
          "name": "name",
          "type": "string"
        },
        {
          "internalType": "string",
          "name": "specialization",
          "type": "string"
        },
        {
          "internalType": "string",
          "name": "license",
          "type": "string"
        },
        {
          "internalType": "uint256",
          "name": "rating",
          "type": "uint256"
        },
        {
          "internalType": "uint256",
          "name": "totalRatings",
          "type": "uint256"
        },
        {
          "internalType": "bool",
          "name": "isVerified",
          "type": "bool"
        },
        {
          "internalType": "bool",
          "name": "exists",
          "type": "bool"
        }
      ],
      "stateMutability": "view",
      "type": "function",
      "constant": true
    },
    {
      "inputs": [
        {
          "internalType": "uint256",
          "name": "",
          "type": "uint256"
        }
      ],
      "name": "emergencyLogs",
      "outputs": [
        {
          "internalType": "address",
          "name": "patient",
          "type": "address"
        },
        {
          "internalType": "address",
          "name": "doctor",
          "type": "address"
        },
        {
          "internalType": "uint256",
          "name": "timestamp",
          "type": "uint256"
        }
      ],
      "stateMutability": "view",
      "type": "function",
      "constant": true
    },
    {
      "inputs": [
        {
          "internalType": "uint256",
          "name": "",
          "type": "uint256"
        }
      ],
      "name": "patientList",
      "outputs": [
        {
          "internalType": "address",
          "name": "",
          "type": "address"
        }
      ],
      "stateMutability": "view",
      "type": "function",
      "constant": true
    },
    {
      "inputs": [
        {
          "internalType": "address",
          "name": "",
          "type": "address"
        }
      ],
      "name": "patients",
      "outputs": [
        {
          "internalType": "string",
          "name": "name",
          "type": "string"
        },
        {
          "internalType": "uint256",
          "name": "age",
          "type": "uint256"
        },
        {
          "internalType": "string",
          "name": "gender",
          "type": "string"
        },
        {
          "internalType": "bool",
          "name": "exists",
          "type": "bool"
        }
      ],
      "stateMutability": "view",
      "type": "function",
      "constant": true
    },
    {
      "inputs": [
        {
          "internalType": "address",
          "name": "patient",
          "type": "address"
        }
      ],
      "name": "triggerEmergencyAccess",
      "outputs": [],
      "stateMutability": "nonpayable",
      "type": "function"
    },
    {
      "inputs": [],
      "name": "getEmergencyLogCount",
      "outputs": [
        {
          "internalType": "uint256",
          "name": "",
          "type": "uint256"
        }
      ],
      "stateMutability": "view",
      "type": "function",
      "constant": true
    },
    {
      "inputs": [
        {
          "internalType": "uint256",
          "name": "idx",
          "type": "uint256"
        }
      ],
      "name": "getEmergencyLog",
      "outputs": [
        {
          "internalType": "address",
          "name": "",
          "type": "address"
        },
        {
          "internalType": "address",
          "name": "",
          "type": "address"
        },
        {
          "internalType": "uint256",
          "name": "",
          "type": "uint256"
        }
      ],
      "stateMutability": "view",
      "type": "function",
      "constant": true
    },
    {
      "inputs": [
        {
          "internalType": "address",
          "name": "user",
          "type": "address"
        }
      ],
      "name": "getRole",
      "outputs": [
        {
          "internalType": "string",
          "name": "",
          "type": "string"
        }
      ],
      "stateMutability": "view",
      "type": "function",
      "constant": true
    },
    {
      "inputs": [
        {
          "internalType": "string",
          "name": "_name",
          "type": "string"
        },
        {
          "internalType": "uint256",
          "name": "_age",
          "type": "uint256"
        },
        {
          "internalType": "string",
          "name": "_gender",
          "type": "string"
        }
      ],
      "name": "registerPatient",
      "outputs": [],
      "stateMutability": "nonpayable",
      "type": "function"
    },
    {
      "inputs": [
        {
          "internalType": "string",
          "name": "_name",
          "type": "string"
        },
        {
          "internalType": "string",
          "name": "_specialization",
          "type": "string"
        },
        {
          "internalType": "string",
          "name": "_license",
          "type": "string"
        }
      ],
      "name": "registerDoctor",
      "outputs": [],
      "stateMutability": "nonpayable",
      "type": "function"
    },
    {
      "inputs": [
        {
          "internalType": "address",
          "name": "_doctor",
          "type": "address"
        }
      ],
      "name": "verifyDoctor",
      "outputs": [],
      "stateMutability": "nonpayable",
      "type": "function"
    },
    {
      "inputs": [],
      "name": "getDoctors",
      "outputs": [
        {
          "internalType": "address[]",
          "name": "",
          "type": "address[]"
        }
      ],
      "stateMutability": "view",
      "type": "function",
      "constant": true
    },
    {
      "inputs": [],
      "name": "getDoctorCount",
      "outputs": [
        {
          "internalType": "uint256",
          "name": "",
          "type": "uint256"
        }
      ],
      "stateMutability": "view",
      "type": "function",
      "constant": true
    },
    {
      "inputs": [],
      "name": "getPatientCount",
      "outputs": [
        {
          "internalType": "uint256",
          "name": "",
          "type": "uint256"
        }
      ],
      "stateMutability": "view",
      "type": "function",
      "constant": true
    },
    {
      "inputs": [
        {
          "internalType": "address",
          "name": "_doctor",
          "type": "address"
        }
      ],
      "name": "getDoctorDetails",
      "outputs": [
        {
          "internalType": "string",
          "name": "name",
          "type": "string"
        },
        {
          "internalType": "string",
          "name": "specialization",
          "type": "string"
        },
        {
          "internalType": "string",
          "name": "license",
          "type": "string"
        },
        {
          "internalType": "uint256",
          "name": "rating",
          "type": "uint256"
        },
        {
          "internalType": "uint256",
          "name": "totalRatings",
          "type": "uint256"
        },
        {
          "internalType": "bool",
          "name": "isVerified",
          "type": "bool"
        },
        {
          "internalType": "bool",
          "name": "exists",
          "type": "bool"
        }
      ],
      "stateMutability": "view",
      "type": "function",
      "constant": true
    },
    {
      "inputs": [
        {
          "internalType": "address",
          "name": "_doctor",
          "type": "address"
        },
        {
          "internalType": "string",
          "name": "_healthIssue",
          "type": "string"
        }
      ],
      "name": "requestAppointment",
      "outputs": [],
      "stateMutability": "nonpayable",
      "type": "function"
    },
    {
      "inputs": [
        {
          "internalType": "uint256",
          "name": "_id",
          "type": "uint256"
        },
        {
          "internalType": "string",
          "name": "_meetingLink",
          "type": "string"
        }
      ],
      "name": "approveAppointment",
      "outputs": [],
      "stateMutability": "nonpayable",
      "type": "function"
    },
    {
      "inputs": [
        {
          "internalType": "uint256",
          "name": "_id",
          "type": "uint256"
        }
      ],
      "name": "rejectAppointment",
      "outputs": [],
      "stateMutability": "nonpayable",
      "type": "function"
    },
    {
      "inputs": [
        {
          "internalType": "uint256",
          "name": "_id",
          "type": "uint256"
        }
      ],
      "name": "payConsultation",
      "outputs": [],
      "stateMutability": "payable",
      "type": "function",
      "payable": true
    },
    {
      "inputs": [
        {
          "internalType": "uint256",
          "name": "_id",
          "type": "uint256"
        },
        {
          "internalType": "uint256",
          "name": "_treatmentFee",
          "type": "uint256"
        }
      ],
      "name": "setTreatmentFee",
      "outputs": [],
      "stateMutability": "nonpayable",
      "type": "function"
    },
    {
      "inputs": [
        {
          "internalType": "uint256",
          "name": "_id",
          "type": "uint256"
        }
      ],
      "name": "payTreatment",
      "outputs": [],
      "stateMutability": "payable",
      "type": "function",
      "payable": true
    },
    {
      "inputs": [
        {
          "internalType": "uint256",
          "name": "_id",
          "type": "uint256"
        }
      ],
      "name": "completeAppointment",
      "outputs": [],
      "stateMutability": "nonpayable",
      "type": "function"
    },
    {
      "inputs": [
        {
          "internalType": "uint256",
          "name": "_appointmentId",
          "type": "uint256"
        },
        {
          "internalType": "uint256",
          "name": "_rating",
          "type": "uint256"
        }
      ],
      "name": "rateDoctor",
      "outputs": [],
      "stateMutability": "nonpayable",
      "type": "function"
    },
    {
      "inputs": [
        {
          "internalType": "uint256",
          "name": "_appointmentId",
          "type": "uint256"
        },
        {
          "internalType": "string",
          "name": "_prescriptionHash",
          "type": "string"
        }
      ],
      "name": "addPrescription",
      "outputs": [],
      "stateMutability": "nonpayable",
      "type": "function"
    },
    {
      "inputs": [
        {
          "internalType": "uint256",
          "name": "_appointmentId",
          "type": "uint256"
        },
        {
          "internalType": "string",
          "name": "_diagnosis",
          "type": "string"
        },
        {
          "internalType": "string",
          "name": "_prescriptionText",
          "type": "string"
        },
        {
          "internalType": "string",
          "name": "_reportHash",
          "type": "string"
        }
      ],
      "name": "addMedicalRecord",
      "outputs": [],
      "stateMutability": "nonpayable",
      "type": "function"
    },
    {
      "inputs": [
        {
          "internalType": "string",
          "name": "_diagnosis",
          "type": "string"
        },
        {
          "internalType": "string",
          "name": "_reportHash",
          "type": "string"
        }
      ],
      "name": "addPatientRecord",
      "outputs": [],
      "stateMutability": "nonpayable",
      "type": "function"
    },
    {
      "inputs": [],
      "name": "getAppointmentCount",
      "outputs": [
        {
          "internalType": "uint256",
          "name": "",
          "type": "uint256"
        }
      ],
      "stateMutability": "view",
      "type": "function",
      "constant": true
    },
    {
      "inputs": [],
      "name": "getTotalRecordCount",
      "outputs": [
        {
          "internalType": "uint256",
          "name": "",
          "type": "uint256"
        }
      ],
      "stateMutability": "view",
      "type": "function",
      "constant": true
    },
    {
      "inputs": [
        {
          "internalType": "address",
          "name": "_patient",
          "type": "address"
        }
      ],
      "name": "getRecordCount",
      "outputs": [
        {
          "internalType": "uint256",
          "name": "",
          "type": "uint256"
        }
      ],
      "stateMutability": "view",
      "type": "function",
      "constant": true
    },
    {
      "inputs": [
        {
          "internalType": "address",
          "name": "_patient",
          "type": "address"
        }
      ],
      "name": "getRecords",
      "outputs": [
        {
          "components": [
            {
              "internalType": "uint256",
              "name": "id",
              "type": "uint256"
            },
            {
              "internalType": "address",
              "name": "patient",
              "type": "address"
            },
            {
              "internalType": "address",
              "name": "doctor",
              "type": "address"
            },
            {
              "internalType": "uint256",
              "name": "appointmentId",
              "type": "uint256"
            },
            {
              "internalType": "string",
              "name": "diagnosis",
              "type": "string"
            },
            {
              "internalType": "string",
              "name": "prescriptionText",
              "type": "string"
            },
            {
              "internalType": "string",
              "name": "reportHash",
              "type": "string"
            },
            {
              "internalType": "uint256",
              "name": "createdAt",
              "type": "uint256"
            }
          ],
          "internalType": "struct Healthcare.MedicalRecord[]",
          "name": "",
          "type": "tuple[]"
        }
      ],
      "stateMutability": "view",
      "type": "function",
      "constant": true
    }
  ],
  "bytecode": "0x6080346200008057601f6200348c38819003918201601f19168301916001600160401b0383118484101762000085578084926020946040528339810103126200008057516001600160a01b03811690819003620000805760018060a01b03193381600154161760015560005416176000556040516133f090816200009c8239f35b600080fd5b634e487b7160e01b600052604160045260246000fdfe6080604052600436101561001257600080fd5b60e0600035811c8062ee9806146126f95780630869cfbc1461266d578063127ca4b41461261257806312dc9013146124e9578063134a3718146123555780631d14c36e1461206f57806320cb5f6114611a3457806324919ac91461195757806329e4afbb146119395780634095b11714611842578063442767331461180a578063500a2e0a146117ec57806350c7a91214611355578063582143081461131b57806379111c1c146112fd57806384fdcd79146111815780639cdba3f61461102c578063a0076e8414610d7a578063a9583c2214610cfc578063b13d5d9414610c34578063b9352c5114610c0b578063bab90dbd14610b8e578063babb1d4114610b4c578063bb82da1314610b12578063bbbb0a8a146109f4578063c190665b146109d6578063c2dfe3b2146108a0578063d77682b514610747578063d80cb05c14610683578063db771b7614610600578063dc4c17a6146105d9578063e571fd2d14610392578063f1b5a8261461033e578063f851a440146103155763f880cb391461019d57600080fd5b34610310576040366003190112610310576001600160401b03600435818111610310576101ce90369060040161291e565b9290916024359081116103105761020a7fab49ba1f5a6814846d6038f80fcf3dde25b992867b330f10e77e5c4c446c500891369060040161291e565b9390943360005261030b6020966003885261022f60ff60036040600020015416612e62565b3360005260088852604080600020986102cb8a549a8351906102508261299b565b8c8252338483015233858301526000606083015261026f36898b612b7c565b608083015284519a6102808c6129b7565b601c8c527f53656c662d55706c6f61646564204d65646963616c205265636f7264000000009b8c8682015260a08401526102bc8d369089612b7c565b60c084015242908301526130da565b6102e782519687966000885260808489015260808801916130b9565b97858903918284880152601c8a5289015201606084015233966040339701916130b9565b0390a4005b600080fd5b34610310576000366003190112610310576001546040516001600160a01b039091168152602090f35b346103105760203660031901126103105761035a600435612c37565b5080546001820154600290920154604080516001600160a01b03938416815292909316602083015291810191909152606090f35b0390f35b34610310576040366003190112610310576004356001600160401b03602435818111610310576103c690369060040161291e565b929033600052602093600485526103e760ff60056040600020015416612c72565b6103f083612b2b565b50600190810154600054604051635ce3ffc360e01b81526001600160a01b039283166004820152336024820152929692919088908390604490829085165afa9182156105cd57600a9261044b916000916105a0575b50613076565b61046761045787612b2b565b5091339060028401541614612eae565b61047a60ff600983015460081c16612fff565b0190821161058a57610496826104908354612961565b83612dcf565b600094601f8311600114610509578280917fa030c0f49df3500f2d220affb8322df48c3614bee45f0b4f00336ca9145da15e96976000936104fe575b501b906000198460031b1c19161790555b6104f960405192839287845233978401916130b9565b0390a3005b8601359250896104d2565b601f1983169582600052876000209060005b89898210610576575050847fa030c0f49df3500f2d220affb8322df48c3614bee45f0b4f00336ca9145da15e97981061055c575b505082811b0190556104e3565b850135600019600386901b60f8161c19169055878061054f565b87830135845592840192918201910161051b565b634e487b7160e01b600052604160045260246000fd5b6105c091508a3d8c116105c6575b6105b881836129ed565b81019061305e565b8a610445565b503d6105ae565b6040513d6000823e3d90fd5b34610310576020366003190112610310576004356002548110156103105761035a90612c37565b34610310576000366003190112610310576006546000805b82811061062a57602082604051908152f35b9061065b9061063883612af4565b60018060a01b0391549060031b1c16600052600860205260406000205490612fae565b90600019811461066d57600101610618565b634e487b7160e01b600052601160045260246000fd5b346103105760203660031901126103105761069c61294b565b6001546001600160a01b0391908216330361071557168060005260046020526106d260ff60056040600020015460081c16612e23565b8060005260046020526005604060002001600160ff198254161790557fb0859f2cf042b300c8948cdd785ec6a23a3742bc5446c19f4b270b67fac2c967600080a2005b60405162461bcd60e51b815260206004820152600a60248201526927b7363c9030b236b4b760b11b6044820152606490fd5b34610310576040366003190112610310576001600160401b0360243581811161031057610778903690600401612bc2565b90336000526020906004825261079860ff60056040600020015416612c72565b6107a3600435612b2b565b5060028101549092906107c0906001600160a01b03163314612eae565b600660058401938454946107d760ff871615612ef1565b6001809660ff19161790550193805192831161058a57610801836107fb8754612961565b87612dcf565b81601f841160011461083d5750928293918392600094610832575b50501b916000199060031b1c1916179055600080f35b01519250858061081c565b919083601f1981168760005284600020946000905b88838310610886575050501061086d575b505050811b019055005b015160001960f88460031b161c19169055838080610863565b858701518855909601959485019487935090810190610852565b34610310576108ae36612b66565b903360005260046020526108cc60ff60056040600020015416612c72565b6108d581612b2b565b5060028101546108ef906001600160a01b03163314612eae565b6108ff60ff600583015416612f30565b61090f60ff600783015416612fbb565b60ff600982015460081c1661099d578215610958576008839101556040519182527fbf5cb242900e975bb70a3eca382c972fd13824743e706a50c135a58d93ee96fe60203393a3005b60405162461bcd60e51b815260206004820152601960248201527f54726561746d656e7420666565206d757374206265203e2030000000000000006044820152606490fd5b60405162461bcd60e51b8152602060048201526011602482015270105b1c9958591e4818dbdb5c1b195d1959607a1b6044820152606490fd5b34610310576000366003190112610310576020600654604051908152f35b602036600319011261031057600435610a0c81612b2b565b5060018101805490916001600160a01b0391610a2b9083163314612eae565b610a3b60ff600583015416612f30565b600781019081549160ff8316610ade576001600293610a5f60048501543414612f6f565b60ff191617905501918183541660005260096020526040600020610a84348254612fae565b905560008080808587541681903415610ad4575b3491f1156105cd5781905416915416917f576b2f83aadc2c1b80c040d66be9ac85285d17f68cccb7c6654e8bcaec364f9e6020604051348152a4005b6108fc9150610a98565b60405162461bcd60e51b815260206004820152600c60248201526b105b1c9958591e481c185a5960a21b6044820152606490fd5b34610310576020366003190112610310576001600160a01b03610b3361294b565b1660005260096020526020604060002054604051908152f35b346103105760203660031901126103105760043560065481101561031057610b75602091612af4565b905460405160039290921b1c6001600160a01b03168152f35b34610310576020366003190112610310576001600160a01b03610baf61294b565b166000526004602052604060002060038101549061038e6004820154600583015490610bda84612a0e565b90610bf36002610bec60018801612a0e565b9601612a0e565b9560405196879660ff808760081c1696169488612be0565b34610310576000366003190112610310576000546040516001600160a01b039091168152602090f35b3461031057600036600319011261031057604051806005548083526020809301809160056000527f036b6384b5eca791c62761152d0c79bb0604c104a5fb6f4eb0703f3154bb3db09060005b86828210610cdf578686610c96828803836129ed565b604051928392818401908285525180915260408401929160005b828110610cbf57505050500390f35b83516001600160a01b031685528695509381019392810192600101610cb0565b83546001600160a01b031685529093019260019283019201610c80565b34610310576020366003190112610310576001600160a01b03610d1d61294b565b1660005260046020526040600020610d3481612a0e565b9061038e610d4460018301612a0e565b91610d5160028201612a0e565b93600382015491600560048201549101549260405196879660ff808760081c1696169488612be0565b5034610310576020908160031936011261031057610d9661294b565b60018054600054604051635ce3ffc360e01b81526001600160a01b039485166004820181905233602483018190529497959694909381851493908816909114908690839060449082908b165afa9182156105cd5760009261100d575b508215611005575b508115610ffd575b5015610fb8576000526008918281526040600020928354926001600160401b03841161058a5792869286929460405192600596610e4384838a1b01866129ed565b8185528385018099600052846000206000915b848310610f2b575050505050604051958287019383885251809452604084818901921b88010197946000925b858410610e8f57888a0389f35b909192939495968580829b603f198c82030187528a51908151815286838301511683820152866040830151166040820152606080830151908201528580610f12610eff610eec608080880151906101008091890152870190612ab4565b60a0808801519087830390880152612ab4565b60c0808701519086830390870152612ab4565b9301519101529b99019796959190910193019190610e82565b988387829d9b8b60409e9a9b9c9e5190610f448261299b565b8654825280868801541684830152600287015416604082015260038601546060820152610f7360048701612a0e565b6080820152610f838b8701612a0e565b60a0820152610f9460068701612a0e565b60c082015260078601548a8201528152019201920191909a989a9997969599610e56565b60405162461bcd60e51b815260048101849052601e60248201527f4e6f7420617574686f72697a656420746f2076696577207265636f72647300006044820152606490fd5b905038610e02565b915038610dfa565b611025919250863d88116105c6576105b881836129ed565b9038610df2565b34610310576020806003193601126103105761104661294b565b336000526004825261106260ff60056040600020015416612c72565b60018060a01b0380911690816000526003835260ff600360406000200154161561114857604051606081018181106001600160401b0382111761058a576040528281528381013381526040820190428252600254600160401b81101561058a578060016110d29201600255612c37565b94909461113257806002945116906001600160601b0360a01b91828754161786556001860192511690825416179055519101557f752018cdfd5f924e9f3c3eb502d75284995f06f31fb10db58a6b98c418ee2cbd604051924284523393a3005b634e487b7160e01b600052600060045260246000fd5b60405162461bcd60e51b815260048101849052601160248201527014185d1a595b9d081b9bdd08199bdd5b99607a1b6044820152606490fd5b60203660031901126103105760043561119981612b2b565b5060018101805490916001600160a01b03916111b89083163314612eae565b6111c860ff600583015416612f30565b6111d860ff600783015416612fbb565b60088101549081156112c0576009810180549260ff8416611282576002936112036001923414612f6f565b60ff191617905501918183541660005260096020526040600020611228348254612fae565b905560008080808587541681903415611278575b3491f1156105cd5781905416915416917f7644a789dc32f6cf67b4f69b7cf14c5e5849b932c420133d594aed346620e9ea6020604051348152a4005b6108fc915061123c565b60405162461bcd60e51b8152602060048201526016602482015275151c99585d1b595b9d08185b1c9958591e481c185a5960521b6044820152606490fd5b60405162461bcd60e51b8152602060048201526015602482015274151c99585d1b595b9d08199959481b9bdd081cd95d605a1b6044820152606490fd5b34610310576000366003190112610310576020600554604051908152f35b34610310576020366003190112610310576001600160a01b0361133c61294b565b1660005260086020526020604060002054604051908152f35b5034610310576060366003190112610310576004356001600160401b03811161031057611386903690600401612bc2565b6024356001600160401b038111610310576113a5903690600401612bc2565b906044356001600160401b038111610310576113c5903690600401612bc2565b923360005260046020526113e760ff60056040600020015460081c1615612d8e565b6040519081018181106001600160401b0382111761058a576040528181528260208201528360408201526005606082015260006080820152600060a0820152600160c0820152336000526004602052604060002081518051906001600160401b03821161058a5781906114648261145e8654612961565b86612dcf565b602090601f831160011461178057600092611775575b50508160011b916000199060031b1c19161781555b60208201518051906001600160401b03821161058a5781906114c1826114b86001870154612961565b60018701612dcf565b602090601f8311600114611703576000926116f8575b50508160011b916000199060031b1c19161760018201555b60408201518051906001600160401b03821161058a5761151f826115166002860154612961565b60028601612dcf565b602090601f831160011461167f57928260c0936005936115a49796600092611674575b50508160011b916000199060031b1c19161760028201555b6060840151600382015560808401516004820155019161158c60a08201511515849060ff801983541691151516179055565b0151815461ff00191690151560081b61ff0016179055565b60055490600160401b82101561058a57600182018060055582101561165e5761165961164a7f6ec2d4f29ace1bfeec4e3323ae5cd8987538be3c8fec51a7752861585ff64e039461163c9460056000527f036b6384b5eca791c62761152d0c79bb0604c104a5fb6f4eb0703f3154bb3db001336001600160601b0360a01b825416179055604051948594606086526060860190612ab4565b908482036020860152612ab4565b82810360408401523395612ab4565b0390a2005b634e487b7160e01b600052603260045260246000fd5b015190503880611542565b906002840160005260206000209160005b601f19851681106116e05750836005936115a497969360019360c097601f198116106116c7575b505050811b01600282015561155a565b015160001960f88460031b161c191690553880806116b7565b91926020600181928685015181550194019201611690565b0151905038806114d7565b9250600184016000526020600020906000935b601f198416851061175a576001945083601f19811610611741575b505050811b0160018201556114ef565b015160001960f88460031b161c19169055388080611731565b81810151835560209485019460019093019290910190611716565b01519050388061147a565b9250836000526020600020906000935b601f19841685106117d1576001945083601f198116106117b8575b505050811b01815561148f565b015160001960f88460031b161c191690553880806117ab565b81810151835560209485019460019093019290910190611790565b34610310576000366003190112610310576020600254604051908152f35b346103105760203660031901126103105761038e61182e61182961294b565b612cb4565b604051918291602083526020830190612ab4565b346103105760203660031901126103105760043533600052600460205261187360ff60056040600020015416612c72565b61187c81612b2b565b506002810154611896906001600160a01b03163314612eae565b6118a660ff600783015416612fbb565b600881015415801561192b575b156118f157600901805461ff00191661010017905533907ff6e08b3b0c1b8d707ae5ca95d1a5186c46b4f4dc69d339a0e2d4814f7a80b00c600080a3005b60405162461bcd60e51b8152602060048201526012602482015271151c99585d1b595b9d081b9bdd081c185a5960721b6044820152606490fd5b5060ff6009820154166118b3565b34610310576000366003190112610310576020600754604051908152f35b346103105760203660031901126103105760043533600052600460205261198860ff60056040600020015416612c72565b600561199382612b2b565b5060028101546119ad906001600160a01b03163314612eae565b0180546119bd60ff821615612ef1565b60ff8160081c166119fc5761ff00191661010017905533907f3554e06c6b929efa1e0657b5a6d0232abfa4c07a128a59acbe8e455ba602d202600080a3005b60405162461bcd60e51b815260206004820152601060248201526f105b1c9958591e481c995a9958dd195960821b6044820152606490fd5b503461031057604036600319011261031057611a4e61294b565b906024356001600160401b03811161031057611a6e903690600401612bc2565b91336000526003602052611a8c60ff60036040600020015416612e62565b6001600160a01b038116600090815260046020526040902060050154611ab49060ff16612c72565b60018060a01b038116600052600460205260036040600020015483517f0aba56681bbc079a926cc1d81b36e2faeeb8eb339661addca3d9a3a2d5e7443960208601918220643332bb32b960d91b6020604051611b0f816129b7565b6005815201520361200a5750670de0b6b3a76400005b600a820291808304600a149015171561066d576064611b4a6005611b5194048361304b565b0490612fae565b9160075490604051916101c083018381106001600160401b0382111761058a5760405280835233602084015260018060a01b0384166040840152856060840152846080840152600060a0840152600060c0840152604051611bb1816129d2565b600081528284015260006101008401526000610120840152600061014084015260006101608401526000610180840152604051611bed816129d2565b600081526101a0840152600160401b81101561058a57806001611c139201600755612b2b565b919091611132578251825560208301516001830180546001600160a01b039283166001600160a01b031991821617909155604085015160028501805491909316911617905560608301518051906001600160401b03821161058a578190611c8a82611c816003880154612961565b60038801612dcf565b602090601f8311600114611f9857600092611f8d575b50508160011b916000199060031b1c19161760038301555b60808301516004830155611d0060058301611ce560a08601511515829060ff801983541691151516179055565b60c0850151815461ff00191690151560081b61ff0016179055565b8201518051906001600160401b03821161058a57611d2e82611d256006860154612961565b60068601612dcf565b602090601f8311600114611f175791806101a09492600a94600092611f0c575b50508160011b916000199060031b1c19161760068201555b611d866101008501511515600783019060ff801983541691151516179055565b610120840151600882015560098101611db26101408601511515829060ff801983541691151516179055565b610160850151815461ff00191690151560081b61ff0016178155610180850151151562ff000082549160101b169062ff00001916179055019101518051906001600160401b03821161058a578190611e0e8261145e8654612961565b602090601f8311600114611ea657600092611e9b575b50508160011b916000199060031b1c19161790555b60075460001981019190821161066d577f42544f26c2c2438f8df5ed15cd9756e9888da74b41a7d9ccd7cb96de90cf664990611e8060405195604087526040870190612ab4565b60208601949094526001600160a01b031693339381900390a4005b015190503880611e24565b6000858152602081209350601f198516905b818110611ef45750908460019594939210611edb575b505050811b019055611e39565b015160001960f88460031b161c19169055388080611ece565b92936020600181928786015181550195019301611eb8565b015190503880611d4e565b906006840160005260206000209160005b601f1985168110611f755750926101a09492600192600a9583601f19811610611f5c575b505050811b016006820155611d66565b015160001960f88460031b161c19169055388080611f4c565b91926020600181928685015181550194019201611f28565b015190503880611ca0565b9250600385016000526020600020906000935b601f1984168510611fef576001945083601f19811610611fd6575b505050811b016003830155611cb8565b015160001960f88460031b161c19169055388080611fc6565b81810151835560209485019460019093019290910190611fab565b7f57ed3b90ecc136bf33f155be982abbc807f25debeaf86726e531d42e78c4763290855190206531b0b731b2b960d11b6020604051612048816129b7565b6006815201520361206157674563918244f40000611b25565b671bc16d674ec80000611b25565b34610310576060366003190112610310576004356001600160401b0381116103105761209f903690600401612bc2565b6044356001600160401b038111610310576120be903690600401612bc2565b3360005260036020526120dc60ff6003604060002001541615612d8e565b60405190608082018281106001600160401b0382111761058a576040528282526020820190602435825260408301908152606083019160018352336000526003602052604060002093518051906001600160401b03821161058a57819061214d826121478954612961565b89612dcf565b602090601f83116001146122e9576000926122de575b50508160011b916000199060031b1c19161784555b51600184015551805160028401916001600160401b03821161058a576121a8826121a28554612961565b85612dcf565b602090601f831160011461226f579180600394926121f4979694600092612264575b50508160011b9160001990861b1c19161790555b51151591019060ff801983541691151516179055565b600654600160401b81101561058a578060016122139201600655612af4565b81549060031b9033821b9160018060a01b03901b19161790557fc85b128388b9c331a2a5485dce4cd0f3db9f7c279d327ce95d6d39d6c94644c7604051602081528061165933946020830190612ab4565b0151905088806121ca565b90601f198316918460005260206000209260005b8181106122c657509260019285926121f499989660039896106122ae575b505050811b0190556121de565b015160001983881b60f8161c191690558880806122a1565b92936020600181928786015181550195019301612283565b015190508780612163565b9250866000526020600020906000935b601f198416851061233a576001945083601f19811610612321575b505050811b018455612178565b015160001960f88460031b161c19169055878080612314565b818101518355602094850194600190930192909101906122f9565b346103105761236336612b66565b6001811015806124de575b156124a85761237c82612b2b565b509160018060a01b03612396816001860154163314612eae565b600984019360ff85546123ad828260081c16612fff565b60101c16612473576002015416928360005260046020526123db60ff60056040600020015460081c16612e23565b83600052600460205260406000206003810160048154920190612409866124048454809661304b565b612fae565b6001840180941161066d57831561245d578390049055556201000062ff0000198254161790556040519182527f92ed38c6fd74efbb802fd2cf3aabb31edf7b63cdd8fc4f1a7ed4526b6434845360203393a4005b634e487b7160e01b600052601260045260246000fd5b60405162461bcd60e51b815260206004820152600d60248201526c105b1c9958591e481c985d1959609a1b6044820152606490fd5b60405162461bcd60e51b815260206004820152600e60248201526d496e76616c696420726174696e6760901b6044820152606490fd5b50600581111561236e565b5034610310576020366003190112610310576004356007548110156103105761251190612b2b565b508054600182015460028301546001600160a01b0391821694929391169161253b60038301612a0e565b6004830154600584015493919061255460068401612a0e565b9060ff94858060078701541697600887015495600988015497600a0161257990612a0e565b9a6040519d8e809e81526020015260408d01528b6101c06060819201528c016125a191612ab4565b9360808c0152818116151560a08c015260081c16151560c08a0152888203908901526125cc91612ab4565b9315156101008701526101208601528181161515610140860152818160081c16151561016086015260101c1615156101808401528281036101a084015261038e91612ab4565b34610310576020366003190112610310576004356005548110156103105760056000527f036b6384b5eca791c62761152d0c79bb0604c104a5fb6f4eb0703f3154bb3db001546040516001600160a01b039091168152602090f35b34610310576020366003190112610310576001600160a01b0361268e61294b565b1660005260036020526126da60406000206126a881612a0e565b906126ed600182015460ff60036126c160028601612a0e565b9401541692604051958695608087526080870190612ab4565b9160208601528482036040860152612ab4565b90151560608301520390f35b5034610310576080366003190112610310576001600160401b036004356024358281116103105761272e90369060040161291e565b916044358481116103105761274790369060040161291e565b90946064359081116103105761276190369060040161291e565b959091336000526020946004865261278360ff60056040600020015416612c72565b60016127d98761279288612b2b565b50830154600054604051635ce3ffc360e01b815260a086901b959095039182166001600160a01b031660048601523360248601529093928391851690829081906044820190565b03915afa80156105cd576127f4916000916129015750613076565b6127fd86612b2b565b5033826002830154161461281090612eae565b600981015460081c60ff1661282490612fff565b6001015416968760005260088752604060002080549a604051906128478261299b565b8c82528a8a83015233604083015288606083015236612867908587612b7c565b6080830152612877368789612b7c565b60a0830152612887368d8a612b7c565b60c0830152429082015261289a916130da565b604051968796875286016080905260808601906128b6926130b9565b9084820360408601526128c8926130b9565b828103606084015233956128db926130b9565b037fab49ba1f5a6814846d6038f80fcf3dde25b992867b330f10e77e5c4c446c500891a4005b6129189150893d8b116105c6576105b881836129ed565b38610445565b9181601f84011215610310578235916001600160401b038311610310576020838186019501011161031057565b600435906001600160a01b038216820361031057565b90600182811c92168015612991575b602083101461297b57565b634e487b7160e01b600052602260045260246000fd5b91607f1691612970565b61010081019081106001600160401b0382111761058a57604052565b604081019081106001600160401b0382111761058a57604052565b602081019081106001600160401b0382111761058a57604052565b90601f801991011681019081106001600160401b0382111761058a57604052565b9060405191826000825492612a2284612961565b908184526001948581169081600014612a915750600114612a4e575b5050612a4c925003836129ed565b565b9093915060005260209081600020936000915b818310612a79575050612a4c93508201013880612a3e565b85548884018501529485019487945091830191612a61565b915050612a4c94506020925060ff191682840152151560051b8201013880612a3e565b919082519283825260005b848110612ae0575050826000602080949584010152601f8019910116010190565b602081830181015184830182015201612abf565b60065481101561165e5760066000527ff652222313e28459528d920b65115c16c04f3efc82aaedc97be59f3f377c0d3f0190600090565b60075481101561165e57600b906007600052027fa66cc928b5edb82af9bd49922954155ab7b0942694bea4ce44661d9a8736c6880190600090565b6040906003190112610310576004359060243590565b9291926001600160401b03821161058a5760405191612ba5601f8201601f1916602001846129ed565b829481845281830111610310578281602093846000960137010152565b9080601f8301121561031057816020612bdd93359101612b7c565b90565b9592612c1060c09693612c02612c1e949b9a979b60e08b5260e08b0190612ab4565b9089820360208b0152612ab4565b908782036040890152612ab4565b9660608601526080850152151560a08401521515910152565b60025481101561165e576003906002600052027f405787fa12a823e0f2b7631cc41b3ba8828b3321ca811111fa75cd3aa3bb5ace0190600090565b15612c7957565b60405162461bcd60e51b8152602060048201526013602482015272111bd8dd1bdc881b9bdd081d995c9a599a5959606a1b6044820152606490fd5b6001546001600160a01b0391821691168114612d6c5780600052600360205260ff60036040600020015416612d4857600052600460205260ff60056040600020015460081c16612d2657604051612d0a816129b7565b600c81526b1d5b9c9959da5cdd195c995960a21b602082015290565b604051612d32816129b7565b60068152653237b1ba37b960d11b602082015290565b50604051612d55816129b7565b60078152661c185d1a595b9d60ca1b602082015290565b50604051612d79816129b7565b600581526430b236b4b760d91b602082015290565b15612d9557565b60405162461bcd60e51b8152602060048201526012602482015271105b1c9958591e481c9959da5cdd195c995960721b6044820152606490fd5b90601f8111612ddd57505050565b600091825260208220906020601f850160051c83019410612e19575b601f0160051c01915b828110612e0e57505050565b818155600101612e02565b9092508290612df9565b15612e2a57565b60405162461bcd60e51b815260206004820152601060248201526f111bd8dd1bdc881b9bdd08199bdd5b9960821b6044820152606490fd5b15612e6957565b60405162461bcd60e51b815260206004820152601960248201527f52656769737465722061732070617469656e74206669727374000000000000006044820152606490fd5b15612eb557565b60405162461bcd60e51b8152602060048201526014602482015273139bdd081e5bdd5c88185c1c1bda5b9d1b595b9d60621b6044820152606490fd5b15612ef857565b60405162461bcd60e51b815260206004820152601060248201526f105b1c9958591e48185c1c1c9bdd995960821b6044820152606490fd5b15612f3757565b60405162461bcd60e51b815260206004820152601060248201526f139bdd08185c1c1c9bdd9959081e595d60821b6044820152606490fd5b15612f7657565b60405162461bcd60e51b815260206004820152601060248201526f125b98dbdc9c9958dd08185b5bdd5b9d60821b6044820152606490fd5b9190820180921161066d57565b15612fc257565b60405162461bcd60e51b815260206004820152601560248201527410dbdb9cdd5b1d185d1a5bdb881b9bdd081c185a59605a1b6044820152606490fd5b1561300657565b60405162461bcd60e51b815260206004820152601960248201527f4170706f696e746d656e74206e6f7420636f6d706c65746564000000000000006044820152606490fd5b8181029291811591840414171561066d57565b90816020910312610310575180151581036103105790565b1561307d57565b60405162461bcd60e51b8152602060048201526014602482015273139bc81d985b1a590818dbdb9cd95b9d0813919560621b6044820152606490fd5b908060209392818452848401376000828201840152601f01601f1916010190565b90815491600160401b83101561058a5760019283810180835581101561165e576000918252602090818320600391821b01948451865580860160018060a01b0390818588015116906001600160601b0360a01b9182825416179055600288019160408801511690825416179055606085015182870155600486019260808601519384516001600160401b039586821161333d57819061317d8261145e8654612961565b8490601f831160011461335c578992613351575b505060001982871b1c191690841b1790555b6005870160a087015180519086821161333d5781906131c68261145e8654612961565b8490601f83116001146132df5789926132d4575b505060001982871b1c191690841b1790555b600687019460c08701519081519586116132c05761320e866121478954612961565b82601f87116001146132515750948093819360e098969360079a9895613246575b50501b92600019911b1c19161790555b0151910155565b01519350388061322f565b878252808220949695939291601f198716915b8282106132a95750509185939160e0989660079a9896941061328f575b50505050811b01905561323f565b01519060f884600019921b161c1916905538808080613281565b808986988294978701518155019701940190613264565b634e487b7160e01b81526041600452602490fd5b0151905038806131da565b848a52858a208794509190601f1984168b5b88828210613327575050841161330f575b505050811b0190556131ec565b015160001983891b60f8161c19169055388080613302565b8385015186558a979095019493840193016132f1565b634e487b7160e01b88526041600452602488fd5b015190503880613191565b848a52858a208794509190601f1984168b5b888282106133a4575050841161338c575b505050811b0190556131a3565b015160001983891b60f8161c1916905538808061337f565b8385015186558a9790950194938401930161336e56fea2646970667358221220cf9b744ab6380667e2b086c6b50885c57b4bc772ca7f36a85935dda0216d6c7c64736f6c63430008140033",
  "immutableReferences": {},
  "source": "\n// SPDX-License-Identifier: MIT\npragma solidity ^0.8.20;\n\nimport \"./AccessNFT.sol\";\n\ncontract Healthcare {\n    AccessNFT public accessNFT;\n    address public admin;\n\n    // =========================\n    // EMERGENCY ACCESS\n    // =========================\n    struct EmergencyAccessLog {\n        address patient;\n        address doctor;\n        uint256 timestamp;\n    }\n\n    EmergencyAccessLog[] public emergencyLogs;\n\n    event EmergencyAccess(address indexed patient, address indexed doctor, uint256 timestamp);\n\n    function triggerEmergencyAccess(address patient) external onlyVerifiedDoctor {\n        require(patients[patient].exists, \"Patient not found\");\n        emergencyLogs.push(EmergencyAccessLog({\n            patient: patient,\n            doctor: msg.sender,\n            timestamp: block.timestamp\n        }));\n        emit EmergencyAccess(patient, msg.sender, block.timestamp);\n    }\n\n    function getEmergencyLogCount() external view returns (uint256) {\n        return emergencyLogs.length;\n    }\n\n    function getEmergencyLog(uint256 idx) external view returns (address, address, uint256) {\n        EmergencyAccessLog storage log = emergencyLogs[idx];\n        return (log.patient, log.doctor, log.timestamp);\n    }\n\n    constructor(address _accessNFT) {\n        admin = msg.sender;\n        accessNFT = AccessNFT(_accessNFT);\n    }\n    function getRole(address user) public view returns (string memory) {\n\n        if (user == admin) {\n            return \"admin\";\n        }\n\n        if (patients[user].exists) {\n            return \"patient\";\n        }\n\n        if (doctors[user].exists) {\n            return \"doctor\";\n        }\n\n        return \"unregistered\";\n    }\n    // =========================\n    // ACCESS MODIFIERS\n    // =========================\n\n    modifier hasPatientConsent(address patient) {\n        require(\n            accessNFT.hasValidAccess(patient, msg.sender),\n            \"No valid consent NFT\"\n        );\n        _;\n    }\n\n    // =========================\n    // STRUCTS\n    // =========================\n\n    struct Patient {\n        string name;\n        uint age;\n        string gender;\n        bool exists;\n    }\n\n    struct Doctor {\n        string name;\n        string specialization;\n        string license;       // medical license ID\n        uint rating;          // average rating (1-5)\n        uint totalRatings;\n        bool isVerified;\n        bool exists;\n    }\n\n    struct Appointment {\n        uint id;\n        address patient;\n        address doctor;\n        string healthIssue;\n        uint consultationFee;\n        bool approved;\n        bool rejected;\n        string meetingLink;\n        bool paid;\n        uint treatmentFee;\n        bool treatmentPaid;\n        bool completed;\n        bool rated;\n        string prescriptionHash;\n    }\n\n    struct MedicalRecord {\n        uint id;\n        address patient;\n        address doctor;\n        uint256 appointmentId;\n        string diagnosis;\n        string prescriptionText;\n        string reportHash; // IPFS hash for attached report (scan, lab report, etc.)\n        uint256 createdAt;\n    }\n\n    // =========================\n    // STORAGE\n    // =========================\n\n    mapping(address => Patient) public patients;\n    mapping(address => Doctor) public doctors;\n\n    address[] public doctorList;\n    address[] public patientList;\n\n    Appointment[] public appointments;\n\n    // patient => list of medical records\n    mapping(address => MedicalRecord[]) private medicalRecordsByPatient;\n\n    mapping(address => uint) public doctorEarnings;\n\n    // =========================\n    // EVENTS\n    // =========================\n\n    event PatientRegistered(address indexed patient, string name);\n    event DoctorRegistered(address indexed doctor, string name, string specialization, string license);\n    event DoctorVerified(address indexed doctor);\n\n    event AppointmentRequested(uint indexed id, address indexed patient, address indexed doctor, string healthIssue, uint consultationFee);\n    event AppointmentApproved(uint indexed id, address indexed doctor, string meetingLink);\n    event AppointmentRejected(uint indexed id, address indexed doctor);\n    event ConsultationPaid(uint indexed id, address indexed patient, address indexed doctor, uint amount);\n    event TreatmentFeeSet(uint indexed id, address indexed doctor, uint treatmentFee);\n    event TreatmentPaid(uint indexed id, address indexed patient, address indexed doctor, uint amount);\n    event AppointmentCompleted(uint indexed id, address indexed doctor);\n    event DoctorRated(uint indexed id, address indexed patient, address indexed doctor, uint rating);\n    event PrescriptionAdded(uint indexed id, address indexed doctor, string prescriptionHash);\n    event MedicalRecordAdded(\n        address indexed patient,\n        address indexed doctor,\n        uint256 indexed recordId,\n        uint256 appointmentId,\n        string diagnosis,\n        string prescriptionText,\n        string reportHash\n    );\n\n    // =========================\n    // MODIFIERS\n    // =========================\n\n    modifier onlyAdmin() {\n        require(msg.sender == admin, \"Only admin\");\n        _;\n    }\n\n    modifier onlyVerifiedDoctor() {\n        require(doctors[msg.sender].isVerified, \"Doctor not verified\");\n        _;\n    }\n\n    // =========================\n    // PATIENT FUNCTIONS\n    // =========================\n\n    function registerPatient(\n        string memory _name,\n        uint _age,\n        string memory _gender\n    ) external {\n        require(!patients[msg.sender].exists, \"Already registered\");\n\n        patients[msg.sender] = Patient({\n            name: _name,\n            age: _age,\n            gender: _gender,\n            exists: true\n        });\n\n        patientList.push(msg.sender);\n\n        emit PatientRegistered(msg.sender, _name);\n    }\n\n    // =========================\n    // DOCTOR FUNCTIONS\n    // =========================\n\n    function registerDoctor(\n        string memory _name,\n        string memory _specialization,\n        string memory _license\n    ) external {\n        require(!doctors[msg.sender].exists, \"Already registered\");\n\n        doctors[msg.sender] = Doctor({\n            name: _name,\n            specialization: _specialization,\n            license: _license,\n            rating: 5,\n            totalRatings: 0,\n            isVerified: false,\n            exists: true\n        });\n\n        doctorList.push(msg.sender);\n\n        emit DoctorRegistered(msg.sender, _name, _specialization, _license);\n    }\n\n    function verifyDoctor(address _doctor) external onlyAdmin {\n        require(doctors[_doctor].exists, \"Doctor not found\");\n        doctors[_doctor].isVerified = true;\n        emit DoctorVerified(_doctor);\n    }\n\n    function getDoctors() external view returns (address[] memory) {\n        return doctorList;\n    }\n\n    function getDoctorCount() external view returns (uint) {\n        return doctorList.length;\n    }\n\n    function getPatientCount() external view returns (uint) {\n        return patientList.length;\n    }\n\n    function getDoctorDetails(address _doctor)\n        external\n        view\n        returns (\n            string memory name,\n            string memory specialization,\n            string memory license,\n            uint rating,\n            uint totalRatings,\n            bool isVerified,\n            bool exists\n        )\n    {\n        Doctor storage d = doctors[_doctor];\n        return (d.name, d.specialization, d.license, d.rating, d.totalRatings, d.isVerified, d.exists);\n    }\n\n    // =========================\n    // APPOINTMENT FUNCTIONS\n    // =========================\n\n    function requestAppointment(\n        address _doctor,\n        string memory _healthIssue\n    ) external {\n\n        require(patients[msg.sender].exists, \"Register as patient first\");\n        require(doctors[_doctor].isVerified, \"Doctor not verified\");\n\n        uint baseFee = calculateFee(_healthIssue, doctors[_doctor].rating);\n\n        appointments.push(\n            Appointment({\n                id: appointments.length,\n                patient: msg.sender,\n                doctor: _doctor,\n                healthIssue: _healthIssue,\n                consultationFee: baseFee,\n                approved: false,\n                rejected: false,\n                meetingLink: \"\",\n                paid: false,\n                treatmentFee: 0,\n                treatmentPaid: false,\n                completed: false,\n                rated: false,\n                prescriptionHash: \"\"\n            })\n        );\n\n        uint newId = appointments.length - 1;\n        emit AppointmentRequested(newId, msg.sender, _doctor, _healthIssue, baseFee);\n    }\n\n    function approveAppointment(\n        uint _id,\n        string memory _meetingLink\n    ) external onlyVerifiedDoctor {\n\n        Appointment storage appt = appointments[_id];\n\n        require(appt.doctor == msg.sender, \"Not your appointment\");\n        require(!appt.approved, \"Already approved\");\n\n        appt.approved = true;\n        appt.meetingLink = _meetingLink;\n    }\n\n    function rejectAppointment(uint _id) external onlyVerifiedDoctor {\n        Appointment storage appt = appointments[_id];\n        require(appt.doctor == msg.sender, \"Not your appointment\");\n        require(!appt.approved, \"Already approved\");\n        require(!appt.rejected, \"Already rejected\");\n\n        appt.rejected = true;\n        emit AppointmentRejected(_id, msg.sender);\n    }\n\n    function payConsultation(uint _id) external payable {\n        Appointment storage appt = appointments[_id];\n\n        require(appt.patient == msg.sender, \"Not your appointment\");\n        require(appt.approved, \"Not approved yet\");\n        require(!appt.paid, \"Already paid\");\n        require(msg.value == appt.consultationFee, \"Incorrect amount\");\n\n        appt.paid = true;\n        doctorEarnings[appt.doctor] += msg.value;\n        payable(appt.doctor).transfer(msg.value);\n\n        emit ConsultationPaid(_id, appt.patient, appt.doctor, msg.value);\n    }\n\n    function setTreatmentFee(uint _id, uint _treatmentFee) external onlyVerifiedDoctor {\n        Appointment storage appt = appointments[_id];\n        require(appt.doctor == msg.sender, \"Not your appointment\");\n        require(appt.approved, \"Not approved yet\");\n        require(appt.paid, \"Consultation not paid\");\n        require(!appt.completed, \"Already completed\");\n        require(_treatmentFee > 0, \"Treatment fee must be > 0\");\n        appt.treatmentFee = _treatmentFee;\n\n        emit TreatmentFeeSet(_id, msg.sender, _treatmentFee);\n    }\n\n    function payTreatment(uint _id) external payable {\n        Appointment storage appt = appointments[_id];\n        require(appt.patient == msg.sender, \"Not your appointment\");\n        require(appt.approved, \"Not approved yet\");\n        require(appt.paid, \"Consultation not paid\");\n        require(appt.treatmentFee > 0, \"Treatment fee not set\");\n        require(!appt.treatmentPaid, \"Treatment already paid\");\n        require(msg.value == appt.treatmentFee, \"Incorrect amount\");\n        appt.treatmentPaid = true;\n        doctorEarnings[appt.doctor] += msg.value;\n        payable(appt.doctor).transfer(msg.value);\n\n        emit TreatmentPaid(_id, appt.patient, appt.doctor, msg.value);\n    }\n\n    function completeAppointment(uint _id) external onlyVerifiedDoctor {\n        Appointment storage appt = appointments[_id];\n        require(appt.doctor == msg.sender, \"Not your appointment\");\n        require(appt.paid, \"Consultation not paid\");\n        require(appt.treatmentFee == 0 || appt.treatmentPaid, \"Treatment not paid\");\n        appt.completed = true;\n\n        emit AppointmentCompleted(_id, msg.sender);\n    }\n\n    // =========================\n    // RATING SYSTEM\n    // =========================\n\n    function rateDoctor(uint _appointmentId, uint _rating) external {\n        require(_rating >= 1 && _rating <= 5, \"Invalid rating\");\n        Appointment storage appt = appointments[_appointmentId];\n        require(appt.patient == msg.sender, \"Not your appointment\");\n        require(appt.completed, \"Appointment not completed\");\n        require(!appt.rated, \"Already rated\");\n        address _doctor = appt.doctor;\n        require(doctors[_doctor].exists, \"Doctor not found\");\n\n        Doctor storage doc = doctors[_doctor];\n\n        doc.rating =\n            (doc.rating * doc.totalRatings + _rating) /\n            (doc.totalRatings + 1);\n\n        doc.totalRatings += 1;\n        appt.rated = true;\n\n        emit DoctorRated(_appointmentId, msg.sender, _doctor, _rating);\n    }\n\n    // =========================\n    // PRESCRIPTIONS (IPFS)\n    // =========================\n\n    function addPrescription(uint _appointmentId, string calldata _prescriptionHash)\n        external\n        onlyVerifiedDoctor\n        hasPatientConsent(appointments[_appointmentId].patient)\n    {\n        Appointment storage appt = appointments[_appointmentId];\n        require(appt.doctor == msg.sender, \"Not your appointment\");\n        require(appt.completed, \"Appointment not completed\");\n        appt.prescriptionHash = _prescriptionHash;\n\n        emit PrescriptionAdded(_appointmentId, msg.sender, _prescriptionHash);\n    }\n\n    // =========================\n    // MEDICAL RECORDS\n    // =========================\n\n    /**\n     * @dev Add a full medical record for a completed appointment.\n     * Stores structured diagnosis, prescription text, and an IPFS hash\n     * pointing to any attached report file.\n     */\n    function addMedicalRecord(\n        uint256 _appointmentId,\n        string calldata _diagnosis,\n        string calldata _prescriptionText,\n        string calldata _reportHash\n    )\n        external\n        onlyVerifiedDoctor\n        hasPatientConsent(appointments[_appointmentId].patient)\n    {\n        Appointment storage appt = appointments[_appointmentId];\n        require(appt.doctor == msg.sender, \"Not your appointment\");\n        require(appt.completed, \"Appointment not completed\");\n\n        address patientAddr = appt.patient;\n        MedicalRecord[] storage list = medicalRecordsByPatient[patientAddr];\n\n        uint256 newId = list.length;\n        list.push(\n            MedicalRecord({\n                id: newId,\n                patient: patientAddr,\n                doctor: msg.sender,\n                appointmentId: _appointmentId,\n                diagnosis: _diagnosis,\n                prescriptionText: _prescriptionText,\n                reportHash: _reportHash,\n                createdAt: block.timestamp\n            })\n        );\n\n        emit MedicalRecordAdded(\n            patientAddr,\n            msg.sender,\n            newId,\n            _appointmentId,\n            _diagnosis,\n            _prescriptionText,\n            _reportHash\n        );\n    }\n\n    /**\n     * @dev Patient uploads their own past medical record to IPFS and logs it.\n     */\n    function addPatientRecord(\n        string calldata _diagnosis,\n        string calldata _reportHash\n    ) external {\n        require(patients[msg.sender].exists, \"Register as patient first\");\n\n        address patientAddr = msg.sender;\n        MedicalRecord[] storage list = medicalRecordsByPatient[patientAddr];\n\n        uint256 newId = list.length;\n        list.push(\n            MedicalRecord({\n                id: newId,\n                patient: patientAddr,\n                doctor: msg.sender,\n                appointmentId: 0, // 0 to indicate self-uploaded record\n                diagnosis: _diagnosis,\n                prescriptionText: \"Self-Uploaded Medical Record\",\n                reportHash: _reportHash,\n                createdAt: block.timestamp\n            })\n        );\n\n        emit MedicalRecordAdded(\n            patientAddr,\n            msg.sender,\n            newId,\n            0,\n            _diagnosis,\n            \"Self-Uploaded Medical Record\",\n            _reportHash\n        );\n    }\n\n    // =========================\n    // VIEW FUNCTIONS\n    // =========================\n\n    function getAppointmentCount() external view returns (uint) {\n        return appointments.length;\n    }\n\n    function getTotalRecordCount() external view returns (uint256) {\n        uint256 total = 0;\n        for (uint256 i = 0; i < patientList.length; i++) {\n            total += medicalRecordsByPatient[patientList[i]].length;\n        }\n        return total;\n    }\n\n    function getRecordCount(address _patient) external view returns (uint256) {\n        return medicalRecordsByPatient[_patient].length;\n    }\n\n    /**\n     * @dev Returns all medical records for a patient.\n     * - Patient can always read their own records\n     * - Admin can read any patient records\n     * - Doctors can read if they have a valid AccessNFT consent\n     */\n    function getRecords(address _patient) external view returns (MedicalRecord[] memory) {\n        bool isPatient = msg.sender == _patient;\n        bool isAdmin = msg.sender == admin;\n        bool hasAccess = accessNFT.hasValidAccess(_patient, msg.sender);\n\n        require(isPatient || isAdmin || hasAccess, \"Not authorized to view records\");\n\n        return medicalRecordsByPatient[_patient];\n    }\n\n    function calculateFee(\n        string memory _healthIssue,\n        uint _rating\n    ) internal pure returns (uint) {\n\n        uint base;\n\n        if (keccak256(bytes(_healthIssue)) == keccak256(bytes(\"fever\"))) {\n            base = 1 ether;\n        } else if (keccak256(bytes(_healthIssue)) == keccak256(bytes(\"cancer\"))) {\n            base = 5 ether;\n        } else {\n            base = 2 ether;\n        }\n\n        // rating multiplier\n        uint multiplier = (_rating * 10) / 5; // 10 to 50%\n\n        return base + ((base * multiplier) / 100);\n    }\n}\n",
  "sourcePath": "C:\\Users\\Varun\\healthcare-dapp\\contracts\\Healthcare.sol",
  "compiler": {
    "name": "solc",
    "version": "0.8.20+commit.a1b79de6.Emscripten.clang"
  },
  "schemaVersion": "3.4.16",
  "updatedAt": "2026-03-23T10:31:36.124Z",
  "networkType": "ethereum",
  "devdoc": {
    "kind": "dev",
    "methods": {
      "addMedicalRecord(uint256,string,string,string)": {
        "details": "Add a full medical record for a completed appointment. Stores structured diagnosis, prescription text, and an IPFS hash pointing to any attached report file."
      },
      "addPatientRecord(string,string)": {
        "details": "Patient uploads their own past medical record to IPFS and logs it."
      },
      "getRecords(address)": {
        "details": "Returns all medical records for a patient. - Patient can always read their own records - Admin can read any patient records - Doctors can read if they have a valid AccessNFT consent"
      }
    },
    "version": 1
  },
  "userdoc": {
    "kind": "user",
    "methods": {},
    "version": 1
  }
}