{
  "contractName": "AccessNFT",
  "abi": [
    {
      "inputs": [],
      "stateMutability": "nonpayable",
      "type": "constructor"
    },
    {
      "anonymous": false,
      "inputs": [
        {
          "indexed": false,
          "internalType": "address",
          "name": "patient",
          "type": "address"
        },
        {
          "indexed": false,
          "internalType": "address",
          "name": "doctor",
          "type": "address"
        },
        {
          "indexed": false,
          "internalType": "uint256",
          "name": "tokenId",
          "type": "uint256"
        },
        {
          "indexed": false,
          "internalType": "uint256",
          "name": "expiresAt",
          "type": "uint256"
        }
      ],
      "name": "AccessGranted",
      "type": "event"
    },
    {
      "anonymous": false,
      "inputs": [
        {
          "indexed": false,
          "internalType": "address",
          "name": "patient",
          "type": "address"
        },
        {
          "indexed": false,
          "internalType": "address",
          "name": "doctor",
          "type": "address"
        },
        {
          "indexed": false,
          "internalType": "uint256",
          "name": "tokenId",
          "type": "uint256"
        }
      ],
      "name": "AccessRevoked",
      "type": "event"
    },
    {
      "anonymous": false,
      "inputs": [
        {
          "indexed": true,
          "internalType": "address",
          "name": "owner",
          "type": "address"
        },
        {
          "indexed": true,
          "internalType": "address",
          "name": "approved",
          "type": "address"
        },
        {
          "indexed": true,
          "internalType": "uint256",
          "name": "tokenId",
          "type": "uint256"
        }
      ],
      "name": "Approval",
      "type": "event"
    },
    {
      "anonymous": false,
      "inputs": [
        {
          "indexed": true,
          "internalType": "address",
          "name": "owner",
          "type": "address"
        },
        {
          "indexed": true,
          "internalType": "address",
          "name": "operator",
          "type": "address"
        },
        {
          "indexed": false,
          "internalType": "bool",
          "name": "approved",
          "type": "bool"
        }
      ],
      "name": "ApprovalForAll",
      "type": "event"
    },
    {
      "anonymous": false,
      "inputs": [
        {
          "indexed": true,
          "internalType": "address",
          "name": "from",
          "type": "address"
        },
        {
          "indexed": true,
          "internalType": "address",
          "name": "to",
          "type": "address"
        },
        {
          "indexed": true,
          "internalType": "uint256",
          "name": "tokenId",
          "type": "uint256"
        }
      ],
      "name": "Transfer",
      "type": "event"
    },
    {
      "inputs": [
        {
          "internalType": "uint256",
          "name": "",
          "type": "uint256"
        }
      ],
      "name": "accessInfo",
      "outputs": [
        {
          "internalType": "address",
          "name": "patient",
          "type": "address"
        },
        {
          "internalType": "address",
          "name": "doctor",
          "type": "address"
        },
        {
          "internalType": "uint256",
          "name": "expiresAt",
          "type": "uint256"
        }
      ],
      "stateMutability": "view",
      "type": "function",
      "constant": true
    },
    {
      "inputs": [
        {
          "internalType": "address",
          "name": "",
          "type": "address"
        },
        {
          "internalType": "address",
          "name": "",
          "type": "address"
        }
      ],
      "name": "activeAccessToken",
      "outputs": [
        {
          "internalType": "uint256",
          "name": "",
          "type": "uint256"
        }
      ],
      "stateMutability": "view",
      "type": "function",
      "constant": true
    },
    {
      "inputs": [
        {
          "internalType": "address",
          "name": "to",
          "type": "address"
        },
        {
          "internalType": "uint256",
          "name": "tokenId",
          "type": "uint256"
        }
      ],
      "name": "approve",
      "outputs": [],
      "stateMutability": "nonpayable",
      "type": "function"
    },
    {
      "inputs": [
        {
          "internalType": "address",
          "name": "owner",
          "type": "address"
        }
      ],
      "name": "balanceOf",
      "outputs": [
        {
          "internalType": "uint256",
          "name": "",
          "type": "uint256"
        }
      ],
      "stateMutability": "view",
      "type": "function",
      "constant": true
    },
    {
      "inputs": [
        {
          "internalType": "uint256",
          "name": "tokenId",
          "type": "uint256"
        }
      ],
      "name": "getApproved",
      "outputs": [
        {
          "internalType": "address",
          "name": "",
          "type": "address"
        }
      ],
      "stateMutability": "view",
      "type": "function",
      "constant": true
    },
    {
      "inputs": [
        {
          "internalType": "address",
          "name": "owner",
          "type": "address"
        },
        {
          "internalType": "address",
          "name": "operator",
          "type": "address"
        }
      ],
      "name": "isApprovedForAll",
      "outputs": [
        {
          "internalType": "bool",
          "name": "",
          "type": "bool"
        }
      ],
      "stateMutability": "view",
      "type": "function",
      "constant": true
    },
    {
      "inputs": [],
      "name": "name",
      "outputs": [
        {
          "internalType": "string",
          "name": "",
          "type": "string"
        }
      ],
      "stateMutability": "view",
      "type": "function",
      "constant": true
    },
    {
      "inputs": [],
      "name": "nextTokenId",
      "outputs": [
        {
          "internalType": "uint256",
          "name": "",
          "type": "uint256"
        }
      ],
      "stateMutability": "view",
      "type": "function",
      "constant": true
    },
    {
      "inputs": [
        {
          "internalType": "uint256",
          "name": "tokenId",
          "type": "uint256"
        }
      ],
      "name": "ownerOf",
      "outputs": [
        {
          "internalType": "address",
          "name": "",
          "type": "address"
        }
      ],
      "stateMutability": "view",
      "type": "function",
      "constant": true
    },
    {
      "inputs": [
        {
          "internalType": "address",
          "name": "from",
          "type": "address"
        },
        {
          "internalType": "address",
          "name": "to",
          "type": "address"
        },
        {
          "internalType": "uint256",
          "name": "tokenId",
          "type": "uint256"
        }
      ],
      "name": "safeTransferFrom",
      "outputs": [],
      "stateMutability": "nonpayable",
      "type": "function"
    },
    {
      "inputs": [
        {
          "internalType": "address",
          "name": "from",
          "type": "address"
        },
        {
          "internalType": "address",
          "name": "to",
          "type": "address"
        },
        {
          "internalType": "uint256",
          "name": "tokenId",
          "type": "uint256"
        },
        {
          "internalType": "bytes",
          "name": "data",
          "type": "bytes"
        }
      ],
      "name": "safeTransferFrom",
      "outputs": [],
      "stateMutability": "nonpayable",
      "type": "function"
    },
    {
      "inputs": [
        {
          "internalType": "address",
          "name": "operator",
          "type": "address"
        },
        {
          "internalType": "bool",
          "name": "approved",
          "type": "bool"
        }
      ],
      "name": "setApprovalForAll",
      "outputs": [],
      "stateMutability": "nonpayable",
      "type": "function"
    },
    {
      "inputs": [
        {
          "internalType": "bytes4",
          "name": "interfaceId",
          "type": "bytes4"
        }
      ],
      "name": "supportsInterface",
      "outputs": [
        {
          "internalType": "bool",
          "name": "",
          "type": "bool"
        }
      ],
      "stateMutability": "view",
      "type": "function",
      "constant": true
    },
    {
      "inputs": [],
      "name": "symbol",
      "outputs": [
        {
          "internalType": "string",
          "name": "",
          "type": "string"
        }
      ],
      "stateMutability": "view",
      "type": "function",
      "constant": true
    },
    {
      "inputs": [
        {
          "internalType": "uint256",
          "name": "tokenId",
          "type": "uint256"
        }
      ],
      "name": "tokenURI",
      "outputs": [
        {
          "internalType": "string",
          "name": "",
          "type": "string"
        }
      ],
      "stateMutability": "view",
      "type": "function",
      "constant": true
    },
    {
      "inputs": [
        {
          "internalType": "address",
          "name": "from",
          "type": "address"
        },
        {
          "internalType": "address",
          "name": "to",
          "type": "address"
        },
        {
          "internalType": "uint256",
          "name": "tokenId",
          "type": "uint256"
        }
      ],
      "name": "transferFrom",
      "outputs": [],
      "stateMutability": "nonpayable",
      "type": "function"
    },
    {
      "inputs": [
        {
          "internalType": "address",
          "name": "doctor",
          "type": "address"
        },
        {
          "internalType": "uint256",
          "name": "duration",
          "type": "uint256"
        }
      ],
      "name": "grantAccess",
      "outputs": [],
      "stateMutability": "nonpayable",
      "type": "function"
    },
    {
      "inputs": [
        {
          "internalType": "address",
          "name": "doctor",
          "type": "address"
        }
      ],
      "name": "revokeAccess",
      "outputs": [],
      "stateMutability": "nonpayable",
      "type": "function"
    },
    {
      "inputs": [
        {
          "internalType": "address",
          "name": "patient",
          "type": "address"
        },
        {
          "internalType": "address",
          "name": "doctor",
          "type": "address"
        }
      ],
      "name": "hasValidAccess",
      "outputs": [
        {
          "internalType": "bool",
          "name": "",
          "type": "bool"
        }
      ],
      "stateMutability": "view",
      "type": "function",
      "constant": true
    }
  ],
  "bytecode": "0x60803462000313576001600160401b039060409080820183811182821017620002fd578252600d81526020926c4d65646963616c41636365737360981b84830152825183810181811083821117620002fd57845260068152654d454441434360d01b85820152825190828211620002fd5760008054926001958685811c95168015620002f2575b89861014620002de578190601f958681116200028b575b508990868311600114620002275784926200021b575b5050600019600383901b1c191690861b1781555b8151938411620002075784548581811c91168015620001fc575b88821014620001e857838111620001a0575b50869284116001146200013a578394959650926200012e575b5050600019600383901b1c191690821b1790555b516114149081620003198239f35b0151905038806200010c565b9190601f1984169685845280842093905b8882106200018857505083859697106200016e575b505050811b01905562000120565b015160001960f88460031b161c1916905538808062000160565b8087859682949686015181550195019301906200014b565b8582528782208480870160051c8201928a8810620001de575b0160051c019086905b828110620001d2575050620000f3565b838155018690620001c2565b92508192620001b9565b634e487b7160e01b82526022600452602482fd5b90607f1690620000e1565b634e487b7160e01b81526041600452602490fd5b015190503880620000b3565b8480528a85208994509190601f198416865b8d8282106200027457505084116200025a575b505050811b018155620000c7565b015160001960f88460031b161c191690553880806200024c565b8385015186558c9790950194938401930162000239565b9091508380528984208680850160051c8201928c8610620002d4575b918a91869594930160051c01915b828110620002c55750506200009d565b8681558594508a9101620002b5565b92508192620002a7565b634e487b7160e01b83526022600452602483fd5b94607f169462000086565b634e487b7160e01b600052604160045260246000fd5b600080fdfe608060408181526004918236101561001657600080fd5b600092833560e01c91826301ffc9a714610ca45750816306fdde0314610bd9578163081812fc14610bb9578163095ea7b314610a4b5781630d26e82914610a0257816323b872dd146109dd57816342842e0e146109a95781635ce3ffc3146109725781636352211e1461094157816370a08231146108ab57816375794a3c1461088c57816385e685311461071d57816395d89b41146106075781639df89256146103905781639e14361314610340578163a22cb46514610270578163b88d4fde146101b5578163c87b56dd14610146575063e985e9c5146100f657600080fd5b3461014257806003193601126101425760ff81602093610114610d4f565b61011c610d6a565b6001600160a01b0391821683526005875283832091168252855220549151911615158152f35b5080fd5b8383346101425760203660031901126101425761018461017f6101b19435600052600260205260018060a01b0360406000205416151590565b610e25565b81815161019081610db5565b5280519161019d83610db5565b825251918291602083526020830190610d0f565b0390f35b9190503461026c57608036600319011261026c576101d1610d4f565b906101da610d6a565b604435906064359467ffffffffffffffff86116102685736602387011215610268578501359361021561020c86610e09565b94519485610de7565b8484528636602487890101116102655760208661025d9760246102629a01838901378601015261024d6102488433610fae565b610ed5565b610258838383611076565b6112a6565b610f8a565b80f35b80fd5b8680fd5b8280fd5b9190503461026c578060031936011261026c5761028b610d4f565b906024359182151580930361033c576001600160a01b0316923384146102fa5750338452600560205280842083855260205280842060ff1981541660ff8416179055519081527f17307eab39ab6107e8899845ad3d59bd9653f200f220920489ca2b5937696c3160203392a380f35b6020606492519162461bcd60e51b8352820152601960248201527f4552433732313a20617070726f766520746f2063616c6c6572000000000000006044820152fd5b8480fd5b90503461026c57602036600319011261026c5735825260076020908152918190208054600182015460029092015492516001600160a01b0391821681529116928101929092526040820152606090f35b8383346101425780600319360112610142576103aa610d4f565b6001600160a01b0391828216919060243583156105d35733865260209460088652828720858852865282872054610597576006546000198114610584576104af61025d60018a930196876006558787519161040483610db5565b85835260008281526002602052604090205461042c906001600160a01b031615155b15611350565b60008281526002602052604090205461044f906001600160a01b03161515610426565b8a865260038c528886206001815401905581865260028c52818b8a8820976bffffffffffffffffffffffff60a01b98828a8254161790557fddf252ad1be2c89b69c2b068fc378daa952ba7f163c4a11628f55a4df523b3ef8180a461118c565b6104b9834261132d565b908451926060840184811067ffffffffffffffff821117610571576080958a9560028b96878f9c97878d988f9e7fb83dcb4c7be3b65620039f90160bc5d0243073b141f0850704c748dfaccff6799f60078f8e61055b9d8552338c52818c01988952848c01998a52835252209651168287541617865560018601925116908254161790555191015533895260088652828920858a52865283838a20554261132d565b928151943386528501528301526060820152a180f35b634e487b7160e01b8b5260418c5260248bfd5b634e487b7160e01b885260118952602488fd5b825162461bcd60e51b815280890187905260166024820152751058d8d95cdcc8185b1c9958591e4819dc985b9d195960521b6044820152606490fd5b815162461bcd60e51b8152602081890152600e60248201526d24b73b30b634b2103237b1ba37b960911b6044820152606490fd5b8284346102655780600319360112610265578151918160019283549384811c91818616958615610713575b6020968785108114610700578899509688969785829a5291826000146106d957505060011461067e575b5050506101b1929161066f910385610de7565b51928284938452830190610d0f565b91908693508083527fb10e2d527612073b26eecdfd717e6a320cf44b4afac2b0732d9fcbe2b7fa0cf65b8284106106c1575050508201018161066f6101b161065c565b8054848a0186015288955087949093019281016106a8565b60ff19168782015293151560051b8601909301935084925061066f91506101b1905061065c565b634e487b7160e01b835260228a52602483fd5b92607f1692610632565b839150346101425760208060031936011261026c5761073a610d4f565b338452600882528484206001600160a01b0380831680875291845286862054949293919290851561085e5791858761085895937f6f6a404ffd2cea4713256a4fd9ce99c8cf8cf32d85c2bb8061d1603ff57d50c3999a9561079a84610e71565b506107a484610e71565b84845291855286832080546001600160a01b031990811690915591168083526003855286832080546000190190558383526002855286832080549092169091557fddf252ad1be2c89b69c2b068fc378daa952ba7f163c4a11628f55a4df523b3ef8280a46007815287600284822082815582600182015501553388526008815282882091885252858181205551928392338460409194939294606082019560018060a01b0380921683521660208201520152565b0390a180f35b5060649187519162461bcd60e51b835282015260096024820152684e6f2061636365737360b81b6044820152fd5b5050346101425781600319360112610142576020906006549051908152f35b83915034610142576020366003190112610142576001600160a01b036108cf610d4f565b169081156108ec5760208480858581526003845220549051908152f35b608490602085519162461bcd60e51b8352820152602960248201527f4552433732313a2061646472657373207a65726f206973206e6f7420612076616044820152683634b21037bbb732b960b91b6064820152fd5b828434610265576020366003190112610265575061096160209235610e71565b90516001600160a01b039091168152f35b5050346101425780600319360112610142576020906109a0610992610d4f565b61099a610d6a565b9061139c565b90519015158152f35b5050346101425761025d610262916109c036610d80565b919251926109cd84610db5565b86845261024d6102488433610fae565b8334610265576102626109ef36610d80565b916109fd6102488433610fae565b611076565b50503461014257806003193601126101425780602092610a20610d4f565b610a28610d6a565b6001600160a01b0391821683526008865283832091168252845220549051908152f35b90503461026c578160031936011261026c57610a65610d4f565b6024359290916001600160a01b0391908280610a8087610e71565b16941693808514610b6c57803314908115610b4d575b5015610ae557848652602052842080546001600160a01b03191683179055610abd83610e71565b167f8c5be1e5ebec7d5bd14f71427d1e84f3dd0314c0f7b2291e5b200ac8c7c3b9258480a480f35b6020608492519162461bcd60e51b8352820152603d60248201527f4552433732313a20617070726f76652063616c6c6572206973206e6f7420746f60448201527f6b656e206f776e6572206f7220617070726f76656420666f7220616c6c0000006064820152fd5b90508652600560205281862033875260205260ff828720541638610a96565b506020608492519162461bcd60e51b8352820152602160248201527f4552433732313a20617070726f76616c20746f2063757272656e74206f776e656044820152603960f91b6064820152fd5b828434610265576020366003190112610265575061096160209235610e97565b82843461026557806003193601126102655781519181825492600184811c91818616958615610c9a575b6020968785108114610700578899509688969785829a5291826000146106d9575050600114610c3f575050506101b1929161066f910385610de7565b91908693508280527f290decd9548b62a8d60345a988386fc84ba6bc95484008f6362f93160ef3e5635b828410610c82575050508201018161066f6101b161065c565b8054848a018601528895508794909301928101610c69565b92607f1692610c03565b84913461026c57602036600319011261026c573563ffffffff60e01b811680910361026c57602092506380ac58cd60e01b8114908115610cfe575b8115610ced575b5015158152f35b6301ffc9a760e01b14905083610ce6565b635b5e139f60e01b81149150610cdf565b919082519283825260005b848110610d3b575050826000602080949584010152601f8019910116010190565b602081830181015184830182015201610d1a565b600435906001600160a01b0382168203610d6557565b600080fd5b602435906001600160a01b0382168203610d6557565b6060906003190112610d65576001600160a01b03906004358281168103610d6557916024359081168103610d65579060443590565b6020810190811067ffffffffffffffff821117610dd157604052565b634e487b7160e01b600052604160045260246000fd5b90601f8019910116810190811067ffffffffffffffff821117610dd157604052565b67ffffffffffffffff8111610dd157601f01601f191660200190565b15610e2c57565b60405162461bcd60e51b815260206004820152601860248201527f4552433732313a20696e76616c696420746f6b656e20494400000000000000006044820152606490fd5b6000908152600260205260409020546001600160a01b0316610e94811515610e25565b90565b600081815260026020526040902054610eba906001600160a01b03161515610e25565b6000908152600460205260409020546001600160a01b031690565b15610edc57565b60405162461bcd60e51b815260206004820152602d60248201527f4552433732313a2063616c6c6572206973206e6f7420746f6b656e206f776e6560448201526c1c881bdc88185c1c1c9bdd9959609a1b6064820152608490fd5b60809060208152603260208201527f4552433732313a207472616e7366657220746f206e6f6e20455243373231526560408201527131b2b4bb32b91034b6b83632b6b2b73a32b960711b60608201520190565b15610f9157565b60405162461bcd60e51b815280610faa60048201610f37565b0390fd5b906001600160a01b038080610fc284610e71565b16931691838314938415610ff5575b508315610fdf575b50505090565b610feb91929350610e97565b1614388080610fd9565b909350600052600560205260406000208260005260205260ff604060002054169238610fd1565b1561102357565b60405162461bcd60e51b815260206004820152602560248201527f4552433732313a207472616e736665722066726f6d20696e636f72726563742060448201526437bbb732b960d91b6064820152608490fd5b9061109e9161108484610e71565b6001600160a01b039391841692849290918316841461101c565b1691821561113b57816110bb916110b486610e71565b161461101c565b7fddf252ad1be2c89b69c2b068fc378daa952ba7f163c4a11628f55a4df523b3ef60008481526004602052604081206bffffffffffffffffffffffff60a01b9081815416905583825260036020526040822060001981540190558482526040822060018154019055858252600260205284604083209182541617905580a4565b60405162461bcd60e51b8152602060048201526024808201527f4552433732313a207472616e7366657220746f20746865207a65726f206164646044820152637265737360e01b6064820152608490fd5b91929091803b1561129d576111d9936040519081630a85bd0160e11b9384825233600483015260009687602484015260448301526080606483015281878160209a8b966084830190610d0f565b03926001600160a01b03165af184918161125d575b5061124c575050503d600014611244573d61120881610e09565b906112166040519283610de7565b81528091833d92013e5b805191826112415760405162461bcd60e51b815280610faa60048201610f37565b01fd5b506060611220565b6001600160e01b0319161492509050565b9091508581813d8311611296575b6112758183610de7565b8101031261033c57516001600160e01b03198116810361033c5790386111ee565b503d61126b565b50915050600190565b92939190803b15611323576112f8946040518092630a85bd0160e11b9485835233600484015260018060a01b03809816602484015260448301526080606483015281806020998a956084830190610d0f565b03916000988991165af184918161125d575061124c575050503d600014611244573d61120881610e09565b5050915050600190565b9190820180921161133a57565b634e487b7160e01b600052601160045260246000fd5b1561135757565b60405162461bcd60e51b815260206004820152601c60248201527f4552433732313a20746f6b656e20616c7265616479206d696e746564000000006044820152606490fd5b9060018060a01b038060009316835260086020526040832091168252602052604081205480156113da57815260076020526040902060020154421090565b509056fea2646970667358221220f4d29617c257dbdad1a3bfc591fb0c08f9f29515ed24358f28c458f69d9be2bf64736f6c63430008140033",
  "immutableReferences": {},
  "source": "// SPDX-License-Identifier: MIT\r\npragma solidity ^0.8.20;\r\n\r\nimport \"@openzeppelin/contracts/token/ERC721/ERC721.sol\";\r\n\r\ncontract AccessNFT is ERC721 {\r\n\r\n    uint256 public nextTokenId;\r\n\r\n    struct Access {\r\n        address patient;\r\n        address doctor;\r\n        uint256 expiresAt;\r\n    }\r\n\r\n    mapping(uint256 => Access) public accessInfo;\r\n    mapping(address => mapping(address => uint256)) public activeAccessToken;\r\n\r\n    event AccessGranted(address patient, address doctor, uint256 tokenId, uint256 expiresAt);\r\n    event AccessRevoked(address patient, address doctor, uint256 tokenId);\r\n\r\n    constructor() ERC721(\"MedicalAccess\", \"MEDACC\") {}\r\n\r\n    function grantAccess(address doctor, uint256 duration) external {\r\n\r\n        require(doctor != address(0), \"Invalid doctor\");\r\n        require(activeAccessToken[msg.sender][doctor] == 0, \"Access already granted\");\r\n\r\n        nextTokenId++;\r\n        uint256 tokenId = nextTokenId;\r\n\r\n        _safeMint(doctor, tokenId);\r\n\r\n        accessInfo[tokenId] = Access({\r\n            patient: msg.sender,\r\n            doctor: doctor,\r\n            expiresAt: block.timestamp + duration\r\n        });\r\n\r\n        activeAccessToken[msg.sender][doctor] = tokenId;\r\n\r\n        emit AccessGranted(msg.sender, doctor, tokenId, block.timestamp + duration);\r\n    }\r\n\r\n    function revokeAccess(address doctor) external {\r\n\r\n        uint256 tokenId = activeAccessToken[msg.sender][doctor];\r\n\r\n        require(tokenId != 0, \"No access\");\r\n\r\n        _burn(tokenId);\r\n\r\n        delete accessInfo[tokenId];\r\n        delete activeAccessToken[msg.sender][doctor];\r\n\r\n        emit AccessRevoked(msg.sender, doctor, tokenId);\r\n    }\r\n\r\n    function hasValidAccess(address patient, address doctor) public view returns (bool) {\r\n\r\n        uint256 tokenId = activeAccessToken[patient][doctor];\r\n\r\n        if(tokenId == 0){\r\n            return false;\r\n        }\r\n\r\n        return accessInfo[tokenId].expiresAt > block.timestamp;\r\n    }\r\n}",
  "sourcePath": "C:\\Users\\Varun\\healthcare-dapp\\contracts\\AccessNFT.sol",
  "compiler": {
    "name": "solc",
    "version": "0.8.20+commit.a1b79de6.Emscripten.clang"
  },
  "schemaVersion": "3.4.16",
  "updatedAt": "2026-03-23T10:31:36.118Z",
  "networkType": "ethereum",
  "devdoc": {
    "events": {
      "Approval(address,address,uint256)": {
        "details": "Emitted when `owner` enables `approved` to manage the `tokenId` token."
      },
      "ApprovalForAll(address,address,bool)": {
        "details": "Emitted when `owner` enables or disables (`approved`) `operator` to manage all of its assets."
      },
      "Transfer(address,address,uint256)": {
        "details": "Emitted when `tokenId` token is transferred from `from` to `to`."
      }
    },
    "kind": "dev",
    "methods": {
      "approve(address,uint256)": {
        "details": "See {IERC721-approve}."
      },
      "balanceOf(address)": {
        "details": "See {IERC721-balanceOf}."
      },
      "getApproved(uint256)": {
        "details": "See {IERC721-getApproved}."
      },
      "isApprovedForAll(address,address)": {
        "details": "See {IERC721-isApprovedForAll}."
      },
      "name()": {
        "details": "See {IERC721Metadata-name}."
      },
      "ownerOf(uint256)": {
        "details": "See {IERC721-ownerOf}."
      },
      "safeTransferFrom(address,address,uint256)": {
        "details": "See {IERC721-safeTransferFrom}."
      },
      "safeTransferFrom(address,address,uint256,bytes)": {
        "details": "See {IERC721-safeTransferFrom}."
      },
      "setApprovalForAll(address,bool)": {
        "details": "See {IERC721-setApprovalForAll}."
      },
      "supportsInterface(bytes4)": {
        "details": "See {IERC165-supportsInterface}."
      },
      "symbol()": {
        "details": "See {IERC721Metadata-symbol}."
      },
      "tokenURI(uint256)": {
        "details": "See {IERC721Metadata-tokenURI}."
      },
      "transferFrom(address,address,uint256)": {
        "details": "See {IERC721-transferFrom}."
      }
    },
    "version": 1
  },
  "userdoc": {
    "kind": "user",
    "methods": {},
    "version": 1
  }
}