{
  "contractName": "Telemedicine",
  "abi": [
    {
      "inputs": [],
      "stateMutability": "nonpayable",
      "type": "constructor"
    },
    {
      "anonymous": false,
      "inputs": [
        {
          "indexed": true,
          "internalType": "uint256",
          "name": "id",
          "type": "uint256"
        },
        {
          "indexed": true,
          "internalType": "address",
          "name": "doctor",
          "type": "address"
        },
        {
          "indexed": false,
          "internalType": "string",
          "name": "meetingLink",
          "type": "string"
        }
      ],
      "name": "AppointmentApproved",
      "type": "event"
    },
    {
      "anonymous": false,
      "inputs": [
        {
          "indexed": true,
          "internalType": "uint256",
          "name": "id",
          "type": "uint256"
        },
        {
          "indexed": true,
          "internalType": "address",
          "name": "doctor",
          "type": "address"
        }
      ],
      "name": "AppointmentCompleted",
      "type": "event"
    },
    {
      "anonymous": false,
      "inputs": [
        {
          "indexed": true,
          "internalType": "uint256",
          "name": "id",
          "type": "uint256"
        },
        {
          "indexed": true,
          "internalType": "address",
          "name": "patient",
          "type": "address"
        },
        {
          "indexed": true,
          "internalType": "address",
          "name": "doctor",
          "type": "address"
        },
        {
          "indexed": false,
          "internalType": "string",
          "name": "healthIssue",
          "type": "string"
        },
        {
          "indexed": false,
          "internalType": "uint256",
          "name": "consultationFee",
          "type": "uint256"
        }
      ],
      "name": "AppointmentRequested",
      "type": "event"
    },
    {
      "anonymous": false,
      "inputs": [
        {
          "indexed": true,
          "internalType": "uint256",
          "name": "id",
          "type": "uint256"
        },
        {
          "indexed": true,
          "internalType": "address",
          "name": "patient",
          "type": "address"
        },
        {
          "indexed": true,
          "internalType": "address",
          "name": "doctor",
          "type": "address"
        },
        {
          "indexed": false,
          "internalType": "uint256",
          "name": "amount",
          "type": "uint256"
        }
      ],
      "name": "ConsultationPaid",
      "type": "event"
    },
    {
      "anonymous": false,
      "inputs": [
        {
          "indexed": true,
          "internalType": "uint256",
          "name": "id",
          "type": "uint256"
        },
        {
          "indexed": true,
          "internalType": "address",
          "name": "patient",
          "type": "address"
        },
        {
          "indexed": true,
          "internalType": "address",
          "name": "doctor",
          "type": "address"
        },
        {
          "indexed": false,
          "internalType": "uint256",
          "name": "rating",
          "type": "uint256"
        }
      ],
      "name": "DoctorRated",
      "type": "event"
    },
    {
      "anonymous": false,
      "inputs": [
        {
          "indexed": true,
          "internalType": "address",
          "name": "doctor",
          "type": "address"
        },
        {
          "indexed": false,
          "internalType": "string",
          "name": "name",
          "type": "string"
        },
        {
          "indexed": false,
          "internalType": "string",
          "name": "specialization",
          "type": "string"
        }
      ],
      "name": "DoctorRegistered",
      "type": "event"
    },
    {
      "anonymous": false,
      "inputs": [
        {
          "indexed": true,
          "internalType": "address",
          "name": "doctor",
          "type": "address"
        }
      ],
      "name": "DoctorVerified",
      "type": "event"
    },
    {
      "anonymous": false,
      "inputs": [
        {
          "indexed": true,
          "internalType": "address",
          "name": "patient",
          "type": "address"
        },
        {
          "indexed": false,
          "internalType": "string",
          "name": "name",
          "type": "string"
        }
      ],
      "name": "PatientRegistered",
      "type": "event"
    },
    {
      "inputs": [],
      "name": "admin",
      "outputs": [
        {
          "internalType": "address",
          "name": "",
          "type": "address"
        }
      ],
      "stateMutability": "view",
      "type": "function",
      "constant": true
    },
    {
      "inputs": [],
      "name": "appointmentCounter",
      "outputs": [
        {
          "internalType": "uint256",
          "name": "",
          "type": "uint256"
        }
      ],
      "stateMutability": "view",
      "type": "function",
      "constant": true
    },
    {
      "inputs": [
        {
          "internalType": "uint256",
          "name": "",
          "type": "uint256"
        }
      ],
      "name": "appointments",
      "outputs": [
        {
          "internalType": "uint256",
          "name": "id",
          "type": "uint256"
        },
        {
          "internalType": "address",
          "name": "patient",
          "type": "address"
        },
        {
          "internalType": "address",
          "name": "doctor",
          "type": "address"
        },
        {
          "internalType": "string",
          "name": "healthIssue",
          "type": "string"
        },
        {
          "internalType": "string",
          "name": "meetingLink",
          "type": "string"
        },
        {
          "internalType": "uint256",
          "name": "consultationFee",
          "type": "uint256"
        },
        {
          "internalType": "uint256",
          "name": "status",
          "type": "uint256"
        },
        {
          "internalType": "bool",
          "name": "isPaid",
          "type": "bool"
        }
      ],
      "stateMutability": "view",
      "type": "function",
      "constant": true
    },
    {
      "inputs": [
        {
          "internalType": "address",
          "name": "",
          "type": "address"
        }
      ],
      "name": "doctors",
      "outputs": [
        {
          "internalType": "string",
          "name": "name",
          "type": "string"
        },
        {
          "internalType": "string",
          "name": "specialization",
          "type": "string"
        },
        {
          "internalType": "uint256",
          "name": "rating",
          "type": "uint256"
        },
        {
          "internalType": "uint256",
          "name": "totalRatings",
          "type": "uint256"
        },
        {
          "internalType": "bool",
          "name": "isVerified",
          "type": "bool"
        },
        {
          "internalType": "bool",
          "name": "exists",
          "type": "bool"
        }
      ],
      "stateMutability": "view",
      "type": "function",
      "constant": true
    },
    {
      "inputs": [
        {
          "internalType": "address",
          "name": "",
          "type": "address"
        }
      ],
      "name": "patients",
      "outputs": [
        {
          "internalType": "string",
          "name": "name",
          "type": "string"
        },
        {
          "internalType": "uint256",
          "name": "age",
          "type": "uint256"
        },
        {
          "internalType": "string",
          "name": "gender",
          "type": "string"
        },
        {
          "internalType": "bool",
          "name": "exists",
          "type": "bool"
        }
      ],
      "stateMutability": "view",
      "type": "function",
      "constant": true
    },
    {
      "inputs": [
        {
          "internalType": "string",
          "name": "_name",
          "type": "string"
        },
        {
          "internalType": "string",
          "name": "_specialization",
          "type": "string"
        }
      ],
      "name": "registerDoctor",
      "outputs": [],
      "stateMutability": "nonpayable",
      "type": "function"
    },
    {
      "inputs": [
        {
          "internalType": "address",
          "name": "_doctor",
          "type": "address"
        }
      ],
      "name": "verifyDoctor",
      "outputs": [],
      "stateMutability": "nonpayable",
      "type": "function"
    },
    {
      "inputs": [
        {
          "internalType": "string",
          "name": "_name",
          "type": "string"
        },
        {
          "internalType": "uint256",
          "name": "_age",
          "type": "uint256"
        },
        {
          "internalType": "string",
          "name": "_gender",
          "type": "string"
        }
      ],
      "name": "registerPatient",
      "outputs": [],
      "stateMutability": "nonpayable",
      "type": "function"
    },
    {
      "inputs": [
        {
          "internalType": "address",
          "name": "_doctor",
          "type": "address"
        },
        {
          "internalType": "string",
          "name": "_healthIssue",
          "type": "string"
        }
      ],
      "name": "requestAppointment",
      "outputs": [],
      "stateMutability": "nonpayable",
      "type": "function"
    },
    {
      "inputs": [
        {
          "internalType": "uint256",
          "name": "_id",
          "type": "uint256"
        },
        {
          "internalType": "string",
          "name": "_meetingLink",
          "type": "string"
        }
      ],
      "name": "approveAppointment",
      "outputs": [],
      "stateMutability": "nonpayable",
      "type": "function"
    },
    {
      "inputs": [
        {
          "internalType": "uint256",
          "name": "_id",
          "type": "uint256"
        }
      ],
      "name": "completeAppointment",
      "outputs": [],
      "stateMutability": "nonpayable",
      "type": "function"
    },
    {
      "inputs": [
        {
          "internalType": "uint256",
          "name": "_id",
          "type": "uint256"
        }
      ],
      "name": "payConsultation",
      "outputs": [],
      "stateMutability": "payable",
      "type": "function",
      "payable": true
    },
    {
      "inputs": [
        {
          "internalType": "uint256",
          "name": "_id",
          "type": "uint256"
        },
        {
          "internalType": "uint256",
          "name": "_rating",
          "type": "uint256"
        }
      ],
      "name": "rateDoctor",
      "outputs": [],
      "stateMutability": "nonpayable",
      "type": "function"
    }
  ],
  "bytecode": "0x6080806040523461002857600080546001600160a01b0319163317905561198d908161002e8239f35b600080fdfe6080604052600436101561001257600080fd5b60003560e01c80630869cfbc1461151f57806312dc90131461146c578063134a3718146112c85780631d14c36e14610f9157806320cb5f6114610af95780634095b11714610a36578063833b46bb14610674578063a9583c22146105d0578063b41f6ed6146105b2578063bbbb0a8a14610416578063d77682b5146101da578063d80cb05c146100d95763f851a440146100ab57600080fd5b346100d45760003660031901126100d4576000546040516001600160a01b039091168152602090f35b600080fd5b346100d45760203660031901126100d4576100f26115ab565b6000546001600160a01b039190821633036101a0571680600052600260205260ff60046040600020015460081c1615610168578060005260026020526004604060002001600160ff198254161790557fb0859f2cf042b300c8948cdd785ec6a23a3742bc5446c19f4b270b67fac2c967600080a2005b60405162461bcd60e51b815260206004820152601060248201526f111bd8dd1bdc881b9bdd08199bdd5b9960821b6044820152606490fd5b60405162461bcd60e51b815260206004820152601260248201527113db9b1e4818591b5a5b88185b1b1bddd95960721b6044820152606490fd5b346100d45760403660031901126100d4576001600160401b036004356024358281116100d45761020e90369060040161170a565b336000526020926002845261022d60ff600460406000200154166117e6565b82600052600484526040600020906102523360018060a01b0360028501541614611844565b600682019182546103e0576004906001809455019183519182116103ca5761027a83546115c1565b601f8111610381575b5085601f83116001146102f7579180806102e795937fa8693dea9c6effd74dd392cec6a47cbeadca1aebed695e6bb7f92c7800b4092d97956000936102ec575b501b916000199060031b1c19161790555b60405191829186835233968301906116e5565b0390a3005b86015192508a6102c3565b601f9291921982169084600052876000209160005b8982821061036d5750509183916102e796947fa8693dea9c6effd74dd392cec6a47cbeadca1aebed695e6bb7f92c7800b4092d98969410610354575b5050811b0190556102d4565b85015160001960f88460031b161c191690558880610348565b88840151855593860193928301920161030c565b8360005286600020601f840160051c8101918885106103c0575b601f0160051c019082905b8281106103b4575050610283565b600081550182906103a6565b909150819061039b565b634e487b7160e01b600052604160045260246000fd5b60405162461bcd60e51b815260048101879052600e60248201526d496e76616c69642073746174757360901b6044820152606490fd5b6020806003193601126100d457600435336000526003825261044260ff600360406000200154166117a1565b600081815260048352604090206001810180546001600160a01b0393929061046d9085163314611844565b600160068201540361056d5760078101805460ff81166105395760058301543403610504579060016002939260ff19161790550192600080808084885416819034156104fa575b3491f1156104ee57807f576b2f83aadc2c1b80c040d66be9ac85285d17f68cccb7c6654e8bcaec364f9e92541693541693604051348152a4005b6040513d6000823e3d90fd5b6108fc91506104b4565b60405162461bcd60e51b815260048101889052600d60248201526c496e636f72726563742066656560981b6044820152606490fd5b60405162461bcd60e51b815260048101889052600c60248201526b105b1c9958591e481c185a5960a21b6044820152606490fd5b60405162461bcd60e51b815260048101869052601860248201527f4170706f696e746d656e74206e6f7420617070726f76656400000000000000006044820152606490fd5b346100d45760003660031901126100d4576020600154604051908152f35b346100d45760203660031901126100d4576001600160a01b036105f16115ab565b166000526002602052610642604060002061060b8161161c565b9060ff61061a6001830161161c565b600283015492610650600460038301549201549260405197889760c0895260c08901906116e5565b9087820360208901526116e5565b93604086015260608501528181161515608085015260081c16151560a08301520390f35b346100d45760403660031901126100d4576004356001600160401b0381116100d4576106a490369060040161170a565b6024356001600160401b0381116100d4576106c390369060040161170a565b903360005260026020526106e560ff60046040600020015460081c1615611760565b60405160c081018181106001600160401b038211176103ca57604052818152826020820152600560408201526000606082015260006080820152600160a0820152336000526002602052604060002081518051906001600160401b0382116103ca57819061075384546115c1565b601f81116109e6575b50602090601f831160011461097a5760009261096f575b50508160011b916000199060031b1c19161781555b60208201518051906001600160401b0382116103ca576107ab60018401546115c1565b601f8111610928575b50602090601f831160011461088f577fbc3a5b2aeb1bc52e3d56d3fd3423dd66cea5ecff8ae1f3bd0d75a0e608da7b85959383610870969460a094600494600092610884575b50508160011b916000199060031b1c19161760018201555b6040840151600282015560608401516003820155019161084460808201511515849060ff801983541691151516179055565b0151815461ff00191690151560081b61ff00161790556040805181815292839261087f928401906116e5565b828103602084015233956116e5565b0390a2005b015190508a806107fa565b90601f198316916001850160005260206000209260005b81811061091057508460a0946004947fbc3a5b2aeb1bc52e3d56d3fd3423dd66cea5ecff8ae1f3bd0d75a0e608da7b859a98946108709a98600195106108f7575b505050811b016001820155610812565b015160001960f88460031b161c191690558a80806108e7565b929360206001819287860151815501950193016108a6565b600184016000526020600020601f840160051c810160208510610968575b601f830160051c8201811061095c5750506107b4565b60008155600101610946565b5080610946565b015190508680610773565b9250836000526020600020906000935b601f19841685106109cb576001945083601f198116106109b2575b505050811b018155610788565b015160001960f88460031b161c191690558680806109a5565b8181015183556020948501946001909301929091019061098a565b909150836000526020600020601f840160051c810160208510610a2f575b90849392915b601f830160051c82018110610a2057505061075c565b60008155859450600101610a0a565b5080610a04565b346100d45760203660031901126100d457600435336000526002602052610a6760ff600460406000200154166117e6565b80600052600460205260066040600020610a8e3360018060a01b0360028401541614611844565b016001815403610ac5576002905533907ff6e08b3b0c1b8d707ae5ca95d1a5186c46b4f4dc69d339a0e2d4814f7a80b00c600080a3005b60405162461bcd60e51b815260206004820152600c60248201526b139bdd08185c1c1c9bdd995960a21b6044820152606490fd5b346100d45760403660031901126100d457610b126115ab565b6024356001600160401b0381116100d457610b3190369060040161170a565b90336000526003602052610b4f60ff600360406000200154166117a1565b6001600160a01b038116600090815260026020526040902060040154610b779060ff166117e6565b610b8082611887565b60018060a01b038216600052600260205260026040600020015466038d7ea4c6800090818102918183041490151715610f7b57610bbc91611828565b90610bc8600154611835565b806001556040519061010082018281106001600160401b038211176103ca5760405280825233602083015260018060a01b03831660408301528460608301526040518060208101106001600160401b036020830111176103ca57602081016040526000815260808301528360a0830152600060c0830152600060e08301526000526004602052604060002090805182556001820160018060a01b03602083015116906bffffffffffffffffffffffff60a01b9182825416179055600283019060018060a01b036040840151169082541617905560608101518051906001600160401b0382116103ca578190610cc060038601546115c1565b601f8111610f28575b50602090601f8311600114610eb657600092610eab575b50508160011b916000199060031b1c19161760038301555b60808101518051906001600160401b0382116103ca57610d1b60048501546115c1565b601f8111610e64575b50602090601f8311600114610deb57928260079360e093610d8b9796600092610de0575b50508160011b916000199060031b1c19161760048501555b60a0810151600585015560c081015160068501550151151591019060ff801983541691151516179055565b7f42544f26c2c2438f8df5ed15cd9756e9888da74b41a7d9ccd7cb96de90cf664960015491610dc5604051956040875260408701906116e5565b60208601949094526001600160a01b031693339381900390a4005b015190508a80610d48565b906004850160005260206000209160005b601f1985168110610e4c57508360e093610d8b979693600193600797601f19811610610e33575b505050811b016004850155610d60565b015160001960f88460031b161c191690558a8080610e23565b91926020600181928685015181550194019201610dfc565b600485016000526020600020601f840160051c810160208510610ea4575b601f830160051c82018110610e98575050610d24565b60008155600101610e82565b5080610e82565b015190508780610ce0565b9250600385016000526020600020906000935b601f1984168510610f0d576001945083601f19811610610ef4575b505050811b016003830155610cf8565b015160001960f88460031b161c19169055878080610ee4565b81810151835560209485019460019093019290910190610ec9565b909150600385016000526020600020601f840160051c810160208510610f74575b90849392915b601f830160051c82018110610f65575050610cc9565b60008155859450600101610f4f565b5080610f49565b634e487b7160e01b600052601160045260246000fd5b346100d45760603660031901126100d4576001600160401b036004358181116100d457610fc290369060040161170a565b906044358181116100d457610fdb90369060040161170a565b336000526003602052610ff960ff6003604060002001541615611760565b6040519060808201828110848211176103ca57604052838252602435602083015260408201526001606082015233600052600360205260406000209181518051908282116103ca57819061104d86546115c1565b601f8111611275575b50602090601f8311600114611209576000926111fe575b50508160011b916000199060031b1c19161783555b602082015160018401556002830190604083015180519182116103ca576110a983546115c1565b601f81116111b6575b50602090601f831160011461114557928260609361110297969360039660009261113a575b50508160011b9160001990871b1c19161790555b0151151591019060ff801983541691151516179055565b7fc85b128388b9c331a2a5485dce4cd0f3db9f7c279d327ce95d6d39d6c94644c7604051602081528061087f339460208301906116e5565b0151905089806110d7565b90601f198316918460005260206000209260005b81811061119e575093611102979693600396936001938360609810611186575b505050811b0190556110eb565b015160001983891b60f8161c19169055898080611179565b92936020600181928786015181550195019301611159565b836000526020600020601f840160051c810191602085106111f4575b601f0160051c01905b8181106111e857506110b2565b600081556001016111db565b90915081906111d2565b01519050868061106d565b9250856000526020600020906000935b601f198416851061125a576001945083601f19811610611241575b505050811b018355611082565b015160001960f88460031b161c19169055868080611234565b81810151835560209485019460019093019290910190611219565b909150856000526020600020601f840160051c810191602085106112be575b90601f859493920160051c01905b8181106112af5750611056565b600081558493506001016112a2565b9091508190611294565b346100d45760403660031901126100d4576004356024359033600052602090600382526112ff60ff600360406000200154166117a1565b600183101580611461575b1561142b57600081815260048352604090206001810180549093916001600160a01b039161133b9083163314611844565b60026006820154036113f65760ff600782015416156113bf57908060027f92ed38c6fd74efbb802fd2cf3aabb31edf7b63cdd8fc4f1a7ed4526b64348453949301958187541660005260028452600260406000206003810161139d8154611835565b9055016113ab898254611828565b60011c9055541694541694604051908152a4005b60405162461bcd60e51b815260048101849052600f60248201526e5061796d656e742070656e64696e6760881b6044820152606490fd5b60405162461bcd60e51b815260048101849052600d60248201526c139bdd0818dbdb5c1b195d1959609a1b6044820152606490fd5b60405162461bcd60e51b815260048101839052600e60248201526d496e76616c696420726174696e6760901b6044820152606490fd5b50600583111561130a565b346100d45760203660031901126100d45760043560005260046020526040600020805460018060a01b039182600182015416926002820154166114b16003830161161c565b916115096114c16004830161161c565b6114fb60058401549560ff600760068701549601541695604051998a998a5260208a015260408901526101008060608a01528801906116e5565b9086820360808801526116e5565b9260a085015260c0840152151560e08301520390f35b346100d45760203660031901126100d4576001600160a01b036115406115ab565b16600052600360205261158c604060002061155a8161161c565b9061159f600182015460ff60036115736002860161161c565b94015416926040519586956080875260808701906116e5565b91602086015284820360408601526116e5565b90151560608301520390f35b600435906001600160a01b03821682036100d457565b90600182811c921680156115f1575b60208310146115db57565b634e487b7160e01b600052602260045260246000fd5b91607f16916115d0565b90601f801991011681019081106001600160401b038211176103ca57604052565b9060405191826000825492611630846115c1565b90818452600194858116908160001461169f575060011461165c575b505061165a925003836115fb565b565b9093915060005260209081600020936000915b81831061168757505061165a9350820101388061164c565b8554888401850152948501948794509183019161166f565b91505061165a94506020925060ff191682840152151560051b820101388061164c565b60005b8381106116d55750506000910152565b81810151838201526020016116c5565b906020916116fe815180928185528580860191016116c2565b601f01601f1916010190565b81601f820112156100d4578035906001600160401b0382116103ca576040519261173e601f8401601f1916602001856115fb565b828452602083830101116100d457816000926020809301838601378301015290565b1561176757565b60405162461bcd60e51b8152602060048201526012602482015271105b1c9958591e481c9959da5cdd195c995960721b6044820152606490fd5b156117a857565b60405162461bcd60e51b8152602060048201526016602482015275139bdd081c9959da5cdd195c9959081c185d1a595b9d60521b6044820152606490fd5b156117ed57565b60405162461bcd60e51b8152602060048201526013602482015272111bd8dd1bdc881b9bdd081d995c9a599a5959606a1b6044820152606490fd5b91908201809211610f7b57565b6000198114610f7b5760010190565b1561184b57565b60405162461bcd60e51b8152602060048201526014602482015273139bdd081e5bdd5c88185c1c1bda5b9d1b595b9d60621b6044820152606490fd5b6040516118b1602082816118a481830196878151938492016116c2565b81010380845201826115fb565b5190207f0aba56681bbc079a926cc1d81b36e2faeeb8eb339661addca3d9a3a2d5e74439811461194b577f4ac99ace14ee0a5ef932dc609df0943ab7ac16b7583634612f8dc35a4289a6ce811461193f577f57ed3b90ecc136bf33f155be982abbc807f25debeaf86726e531d42e78c47632146119335766470de4df82000090565b67016345785d8a000090565b5066b1a2bc2ec5000090565b50662386f26fc100009056fea264697066735822122039cade4efb2578b3e1ed4966417c1da9820a0159676617a5049e75f9633400da64736f6c63430008140033",
  "immutableReferences": {},
  "source": "// SPDX-License-Identifier: MIT\r\npragma solidity ^0.8.20;\r\n\r\ncontract Telemedicine {\r\n\r\n    address public admin;\r\n    uint public appointmentCounter;\r\n\r\n    constructor() {\r\n        admin = msg.sender;\r\n    }\r\n\r\n    // ==========================\r\n    // STRUCTS\r\n    // ==========================\r\n\r\n    struct Doctor {\r\n        string name;\r\n        string specialization;\r\n        uint rating;\r\n        uint totalRatings;\r\n        bool isVerified;\r\n        bool exists;\r\n    }\r\n\r\n    struct Patient {\r\n        string name;\r\n        uint age;\r\n        string gender;\r\n        bool exists;\r\n    }\r\n\r\n    struct Appointment {\r\n        uint id;\r\n        address patient;\r\n        address doctor;\r\n        string healthIssue;\r\n        string meetingLink;\r\n        uint consultationFee;\r\n        uint status; // 0=requested,1=approved,2=completed,3=cancelled\r\n        bool isPaid;\r\n    }\r\n\r\n    mapping(address => Doctor) public doctors;\r\n    mapping(address => Patient) public patients;\r\n    mapping(uint => Appointment) public appointments;\r\n\r\n    // ==========================\r\n    // EVENTS\r\n    // ==========================\r\n\r\n    event PatientRegistered(address indexed patient, string name);\r\n    event DoctorRegistered(address indexed doctor, string name, string specialization);\r\n    event DoctorVerified(address indexed doctor);\r\n\r\n    event AppointmentRequested(uint indexed id, address indexed patient, address indexed doctor, string healthIssue, uint consultationFee);\r\n    event AppointmentApproved(uint indexed id, address indexed doctor, string meetingLink);\r\n    event AppointmentCompleted(uint indexed id, address indexed doctor);\r\n    event ConsultationPaid(uint indexed id, address indexed patient, address indexed doctor, uint amount);\r\n    event DoctorRated(uint indexed id, address indexed patient, address indexed doctor, uint rating);\r\n\r\n    // ==========================\r\n    // MODIFIERS\r\n    // ==========================\r\n\r\n    modifier onlyAdmin() {\r\n        require(msg.sender == admin, \"Only admin allowed\");\r\n        _;\r\n    }\r\n\r\n    modifier onlyVerifiedDoctor() {\r\n        require(doctors[msg.sender].isVerified, \"Doctor not verified\");\r\n        _;\r\n    }\r\n\r\n    modifier onlyPatient() {\r\n        require(patients[msg.sender].exists, \"Not registered patient\");\r\n        _;\r\n    }\r\n\r\n    // ==========================\r\n    // REGISTRATION\r\n    // ==========================\r\n\r\n    function registerDoctor(string memory _name, string memory _specialization) public {\r\n        require(!doctors[msg.sender].exists, \"Already registered\");\r\n\r\n        doctors[msg.sender] = Doctor(\r\n            _name,\r\n            _specialization,\r\n            5, // initial rating\r\n            0,\r\n            false,\r\n            true\r\n        );\r\n\r\n        emit DoctorRegistered(msg.sender, _name, _specialization);\r\n    }\r\n\r\n    function verifyDoctor(address _doctor) public onlyAdmin {\r\n        require(doctors[_doctor].exists, \"Doctor not found\");\r\n        doctors[_doctor].isVerified = true;\r\n        emit DoctorVerified(_doctor);\r\n    }\r\n\r\n    function registerPatient(string memory _name, uint _age, string memory _gender) public {\r\n        require(!patients[msg.sender].exists, \"Already registered\");\r\n\r\n        patients[msg.sender] = Patient(\r\n            _name,\r\n            _age,\r\n            _gender,\r\n            true\r\n        );\r\n\r\n        emit PatientRegistered(msg.sender, _name);\r\n    }\r\n\r\n    // ==========================\r\n    // APPOINTMENTS\r\n    // ==========================\r\n\r\n    function requestAppointment(address _doctor, string memory _healthIssue)\r\n        public\r\n        onlyPatient\r\n    {\r\n        require(doctors[_doctor].isVerified, \"Doctor not verified\");\r\n\r\n        uint baseFee = calculateBaseFee(_healthIssue);\r\n        uint finalFee = baseFee + (doctors[_doctor].rating * 1e15);\r\n\r\n        appointmentCounter++;\r\n\r\n        appointments[appointmentCounter] = Appointment(\r\n            appointmentCounter,\r\n            msg.sender,\r\n            _doctor,\r\n            _healthIssue,\r\n            \"\",\r\n            finalFee,\r\n            0,\r\n            false\r\n        );\r\n\r\n        emit AppointmentRequested(appointmentCounter, msg.sender, _doctor, _healthIssue, finalFee);\r\n    }\r\n\r\n    function approveAppointment(uint _id, string memory _meetingLink)\r\n        public\r\n        onlyVerifiedDoctor\r\n    {\r\n        Appointment storage appt = appointments[_id];\r\n\r\n        require(appt.doctor == msg.sender, \"Not your appointment\");\r\n        require(appt.status == 0, \"Invalid status\");\r\n\r\n        appt.status = 1;\r\n        appt.meetingLink = _meetingLink;\r\n\r\n        emit AppointmentApproved(_id, msg.sender, _meetingLink);\r\n    }\r\n\r\n    function completeAppointment(uint _id)\r\n        public\r\n        onlyVerifiedDoctor\r\n    {\r\n        Appointment storage appt = appointments[_id];\r\n\r\n        require(appt.doctor == msg.sender, \"Not your appointment\");\r\n        require(appt.status == 1, \"Not approved\");\r\n\r\n        appt.status = 2;\r\n\r\n        emit AppointmentCompleted(_id, msg.sender);\r\n    }\r\n\r\n    function payConsultation(uint _id)\r\n        public\r\n        payable\r\n        onlyPatient\r\n    {\r\n        Appointment storage appt = appointments[_id];\r\n\r\n        require(appt.patient == msg.sender, \"Not your appointment\");\r\n        require(appt.status == 1, \"Appointment not approved\");\r\n        require(!appt.isPaid, \"Already paid\");\r\n        require(msg.value == appt.consultationFee, \"Incorrect fee\");\r\n\r\n        appt.isPaid = true;\r\n        payable(appt.doctor).transfer(msg.value);\r\n\r\n        emit ConsultationPaid(_id, appt.patient, appt.doctor, msg.value);\r\n    }\r\n\r\n    // ==========================\r\n    // RATING SYSTEM\r\n    // ==========================\r\n\r\n    function rateDoctor(uint _id, uint _rating) public onlyPatient {\r\n        require(_rating >= 1 && _rating <= 5, \"Invalid rating\");\r\n\r\n        Appointment storage appt = appointments[_id];\r\n\r\n        require(appt.patient == msg.sender, \"Not your appointment\");\r\n        require(appt.status == 2, \"Not completed\");\r\n        require(appt.isPaid, \"Payment pending\");\r\n\r\n        Doctor storage doc = doctors[appt.doctor];\r\n\r\n        doc.totalRatings++;\r\n        doc.rating = (doc.rating + _rating) / 2;\r\n\r\n        emit DoctorRated(_id, appt.patient, appt.doctor, _rating);\r\n    }\r\n\r\n    // ==========================\r\n    // INTERNAL FEE LOGIC\r\n    // ==========================\r\n\r\n    function calculateBaseFee(string memory issue) internal pure returns (uint) {\r\n\r\n        bytes32 issueHash = keccak256(abi.encodePacked(issue));\r\n\r\n        if(issueHash == keccak256(\"fever\")) {\r\n            return 0.01 ether;\r\n        }\r\n\r\n        if(issueHash == keccak256(\"internal\")) {\r\n            return 0.05 ether;\r\n        }\r\n\r\n        if(issueHash == keccak256(\"cancer\")) {\r\n            return 0.1 ether;\r\n        }\r\n\r\n        return 0.02 ether; // default\r\n    }\r\n}\r\n",
  "sourcePath": "C:\\Users\\Varun\\healthcare-dapp\\contracts\\Telemedicine.sol",
  "compiler": {
    "name": "solc",
    "version": "0.8.20+commit.a1b79de6.Emscripten.clang"
  },
  "schemaVersion": "3.4.16",
  "updatedAt": "2026-03-23T10:31:36.135Z",
  "networkType": "ethereum",
  "devdoc": {
    "kind": "dev",
    "methods": {},
    "version": 1
  },
  "userdoc": {
    "kind": "user",
    "methods": {},
    "version": 1
  }
}